:040000008A11F12F41
:100BDA007E088A007F0882008A11ED258A1180002A
:100BEA00840A04087D0603190034FF0A0319FE0A61
:100BFA00F12D831603131815193099001812831250
:100C0A0003139817181683160313981683120313DF
:100C1A008C12831603138C160800FF340134003437
:100C2A0000340034003401340134003402343234E4
:100C3A0000340034003401340034043406340034FF
:100C4A0000340034013400341034003401340034E8
:100C5A0000340134003408340034FF3400340034E2
:100C6A000134003400340034003400340034FD0010
:100C7A00572E43308A11AC268A11722E3C308A11C3
:100C8A00AC268A11722E35308A11AC268A11722E40
:100C9A002E308A11AC268A11722E27308A11AC2680
:100CAA008A11722E7D0883120313D500D6015608C5
:100CBA00003A0319612E722E5508003A03193E2E86
:100CCA00013A0319432E033A0319482E013A03192C
:100CDA004D2E073A0319522E722E0800F4000030E6
:100CEA00F8000130F700FF30F600FF30F500A12EC2
:100CFA0078087704760475040319842E852EA72EA6
:100D0A000130F0000030F1000030F2000030F30052
:100D1A007008F5027108031C710F942E952EF602C5
:100D2A007208031C720F9A2E9B2EF7027308031C7B
:100D3A00730FA02EA12EF80283160313981CA62E59
:100D4A00A72E7D2E740883120313990008008312BC
:100D5A000313D2004A3084002030F9000408FA0054
:100D6A000730FB007908840083130008FC00F90AA5
:100D7A007A0884007C088000FA0AFB0BB72ED1019E
:100D8A00FF30F9007908CA00D40154085207F90063
:100D9A00790884000008FA005408013E4A3E84009B
:100DAA007A0880000130F9007908D4070530540226
:100DBA00031CE02EE12ECA2ED301D30A53084A3E61
:100DCA0084000008F9007908D1070130F900790890
:100DDA00D30706305302031CF32EF42EE32E5108D8
:100DEA00F9007908D000D40154084A3E84008313DC
:100DFA0000088A1173268A11C730F900042FF90BEB
:100E0A00032F072F082F0130F900790883120313E3
:100E1A00D40707305402031C132F142FF92E08008D
:100E2A00831203138501860107309F00CF30831692
:100E3A00031381008B010F308500023086000030D9
:100E4A00F3000030F2002530F1008030F0008A1102
:100E5A00FE258A118312031306148519352F362F9E
:100E6A006D2F051A392F3A2F4E2F03308A113C263F
:100E7A008A11183083120313D8005E30D700D70BBB
:100E8A00442FD80B442F492F01308A113C268A114E
:100E9A00522F01308A113C268A111830831203130B
:100EAA00D8005E30D700D70B582FD80B582F5D2F9C
:100EBA005F2F061083120313851D642F652F5E2F83
:100ECA0000308A113C268A11831203130614322F2A
:100EDA000518702F712FA82F051A742F752F892FB7
:100EEA0003308A113C268A11183083120313D80062
:100EFA005E30D700D70B7F2FD80B7F2F842F02307D
:100F0A008A113C268A118D2F02308A113C268A11B9
:100F1A00183083120313D8005E30D700D70B932FF3
:100F2A00D80B932F982F9A2F061083120313051CA0
:100F3A009F2FA02F992F00308A113C268A118312E5
:100F4A0003130614322F8518AB2FAC2FCB2F033087
:100F5A008A113C268A11B22F061083120313851CAC
:100F6A00B72FB82FB12F183083120313D8005E3071
:100F7A00D700D70BBE2FD80BBE2FC32F00308A1134
:100F8A003C268A11831203130614322F0519CE2F19
:100F9A00CF2FEE2F04308A113C268A11D52F061046
:100FAA0083120313051DDA2FDB2FD42F1830831277
:100FBA000313D8005E30D700D70BE12FD80BE12FEF
:100FCA00E62F00308A113C268A1183120313061475
:100FDA00322F322F8A11002883134A30FD0006303F
:100FEA00FE001230FF00203084008A11F1258A1198
:060FFA0083018A11152F8E
:02400E00503F21
:00000001FF
