:040000008A11112828
:10000800FE00030E83120313D4000408D5000A0867
:10001800D6007F08D7008A11122A8A111328FD01F9
:1000280083132030840053308A112E268A11A03081
:100038008400BC308A112E268A1183018A11242853
:100048008A11F4258A118A111D268A118A1196258A
:100058008A11003083120313DB000030DA002530E8
:10006800D9008030D8008A1109268A1102308312FB
:1000780003134E0203184128422847280130E400A0
:100088006408CE074828CE014E082E3E840083130C
:100098000003031D502851283A284E082E3E84009C
:1000A8008001E7014E08031D5A285B286728670866
:1000B800273E840083130008E4006708203E84007C
:1000C80064088000AE284E03031D6B286C2878282E
:1000D8006708B53E840083130008E4006708203EE3
:1000E800840064088000AE2802304E06031D7D2877
:1000F8007E288A286708AE3E840083130008E4003F
:100108006708203E840064088000AE2803304E064D
:10011800031D8F2890289C286708A73E8400831316
:100128000008E4006708203E840064088000AE28C8
:1001380004304E06031DA128A228AE286708A03E59
:10014800840083130008E4006708203E84006408E4
:100158008000AE280130E4006408E7070730670232
:10016800031CB728B8285628200A031DBC28BD2818
:100178003A28E501E601E60A6608203E8400831372
:100188000008E4006408E5070130E4006408E607B5
:1001980006306602031CD128D228C0282608650626
:1001A800031DD728D8283A282108E4006408CB0082
:1001B8002208E4006408CA002308E4006408C900AF
:1001C8002408E4006408C8002508E4006408C7009F
:1001D8002608E4006408C600CC014B03031DF5287B
:1001E800F6283A284A08031DFA28FB2847296730C9
:1001F8004906031D0029012947294808031D052927
:100208000629472938308A11D1258A118312031308
:100218004708031D10291129162983308A11D12571
:100228008A113A284703031D1A291B2920299130CE
:100238008A11D1258A113A2803304706031D25293A
:1002480026292B296B308A11D1258A113A280430A6
:100258004706031D30293129362973308A11D125E3
:100268008A113A2805304706031D3B293C294129B4
:1002780062308A11D1258A113A288A308A11D1250B
:100288008A113A283A284A08031D4B294C2964291F
:100298004908031D5029512964294808031D552977
:1002A800562964294708031D5A295B296429E9014D
:1002B800C101CC01CC0A9F308A11D1258A113A2874
:1002C8004A08031D682969297F2903304906031D47
:1002D8006E296F297F294808031D732974297F29EE
:1002E8004708E4006408C500CC01CC0A55308A11DF
:1002F800D1258A113A284A08031D832984299A2975
:1003080005304906031D89298A299A294808031DA9
:100318008E298F299A294708E4006408C500CC0172
:10032800CC0A29308A11D1258A113A284A08031D96
:100338009E299F29B92907304906031DA429A52903
:10034800B9294808031DA929AA29B9294708E40099
:100358006408C5000130E4006408C400CC01CC0A7C
:1003680047308A11D1258A113A28491DBC29BD294F
:10037800CD294808E4006408C300E8010130E4001E
:100388006408E900CC01CC0AA6308A11D1258A116B
:10039800E329C91CD029D129E3294808E4006408C5
:1003A800C3000130E4006408E8000130E400640898
:1003B800E900CC01CC0A7B308A11D1258A1183123D
:1003C8000313491EE829E929F9294708E4006408C4
:1003D800BF00C0010130E4006408C100CC01CC0AB0
:1003E80098308A11D1258A113A28C91DFC29FD297E
:1003F80046294708E4006408BF000130E4006408A7
:10040800C0000130E4006408C100CC01CC0AAD3062
:100418008A11D1258A113A288A1111288C1E152A89
:10042800162A7C2A1A08D3005308D200520A031D40
:100438001E2A1F2A202ACF0107307D02031C252AE5
:10044800262A302A7D08031D2A2A2B2A5F2A520AC7
:10045800031D2F2A302A5F2A5108031D342A352A02
:10046800422A5208D3007D08273E8400530883138C
:1004780080000130D3005308FD075F2A5103031D94
:10048800462A472A502A5208D3007D08B53E8400E0
:100498005308831380003D2A02305106031D552A54
:1004A800562A5F2A5208D3007D08AE3E84005308BE
:1004B800831380003D2A07307D06031D642A652AC0
:1004C8007A2AFD010130D30051082E3E84005308DA
:1004D80083138000023051020318732A742A792A80
:1004E8000130D3005308D1077A2AD1018C12CF2BBF
:1004F8000C1C7F2A802ACF2B831603130C14FF3081
:10050800831203138F0083308E000A304F020318C2
:100518008E2A8F2A942A0130D3005308CF079A2AAB
:100528007D080319982A992A9A2AFD0138083A025F
:1005380003189F2AA02AA52A0130D3005308BA0716
:10054800342BBA0186156903031DAB2AAC2A332B59
:10055800420843060319B12AB22ABF2A4308D30026
:100568005308C20043088A115A258A1183120313BB
:10057800D3005308B8006803031DC32AC42AE52A18
:10058800350A031DCC2A360A0319CB2ACC2AFD2AA0
:100598000130B5070318B60A0030B6073C0803193E
:1005A800D62AD72ADD2A08303C02031CDC2ADD2A99
:1005B800E22A0730D3005308BC00FD2A0130BC02F0
:1005C800FD2A350836040319EA2AEB2AFD2A0130E8
:1005D800B5020030031CB603B60207303C02031C08
:1005E800F62AF72AF92ABC01FD2A0130D30053085C
:1005F800BC073C08213E84008A1100248A11D300DC
:1006080005085306FE39530685003C08193E840048
:100618008A1100248A11D300D30CD30C0508530681
:100628007F39530685003C08113E84008A11002456
:100638008A11D300D30ED30DD30D05085306BF3945
:10064800530685003C08093E84008A1100248A115B
:10065800D300D30D05085306FD39530685008611CE
:10066800370839020318392B3A2B3F2B0130D300B6
:100678005308B907CE2BB9014103031D442B452B61
:10068800CE2B3E083F0603194A2B4B2B582B3F080D
:10069800D3005308BE003F088A115A258A118312D5
:1006A8000313D3005308B7004003031D5C2B5D2BD5
:1006B8007E2B330A031D652B340A0319642B652B23
:1006C800962B0130B3070318B40A0030B4073B086F
:1006D80003196F2B702B762B08303B02031C752BEC
:1006E800762B7B2B0730D3005308BB00962B0130A9
:1006F800BB02962B330834040319832B842B962BC7
:100708000130B3020030031CB403B40207303B02CB
:10071800031C8F2B902B922BBB01962B0130D300FF
:100728005308BB073B08213E84008A1100248A1124
:10073800D300D30E06085306EF39530686003B084C
:10074800193E84008A1100248A11D300D30ED30DD8
:1007580006085306DF39530686003B08113E84001D
:100768008A1100248A11D300D30ED30DD30D0608A5
:100778005306BF39530686003B08093E84008A1198
:1007880000248A11D300D30CD30C060853067F39F2
:10079800530686000C105708FF0056088A005508B3
:0C07A8008400540E8300FE0E7E0E09003B
:1008000004308A000408840A8207003406340C3459
:10081000123419341F3425342C343234003400346B
:100820000034003400340134013401340034003425
:100830000034013401340134003400340034013414
:100840000134013400340034003400340134013404
:1008500000340034003400340034013443344C3468
:1008600045344134523420345034523445345334B6
:10087000453454340D340A3400345334453454343C
:1008800020344234413455344434203452344134D9
:10089000543445342034003447344F3454344F34C6
:1008A00020345034523445345334453454340D34A8
:1008B0000A340034533445345434203450345234E0
:1008C00045345334453454340D340A34003431340F
:1008D000313435343234303430340D340A34003469
:1008E000313439343234303430340D340A34003455
:1008F000333438343434303430340D340A34003442
:10090000523449344734483454340D340A340034B2
:1009100032343434303430340D340A340034393421
:100920003634303430340D340A340034343438340E
:10093000303430340D340A34003444344F345734B6
:100940004E340D340A340034533454344F3450345C
:100950000D340A3400344C344534463454340D34A8
:100960000A340034553450340D340A340034F6015E
:10097000F11FBB2CBC2CC32CF009F109F00A0319A0
:10098000F10AF601F60AF31FC62CC72CD02CF20987
:10099000F309F20A0319F30A0130F4007408F606A9
:1009A000F701F801700871040319D72CD82C0F2D0A
:1009B000F501F50AE62C01300310F00DF10DFF3EB4
:1009C000031DDC2C0130F4007408F507F11FE92C3D
:1009D000EA2CDB2C01300310F70DF80DFF3E031D50
:1009E000EB2C71087302031DF72C70087202031CB4
:1009F000FA2CFB2C022D7008F2027108031CF30381
:100A0000F302771401300310F10CF00CFF3E031DCC
:100A1000032D0130F502031D0E2D0F2DEA2C760853
:100A20000319132D142D192DF709F809F70A0319C5
:100A3000F80A7808F1007708F00008008312031321
:100A4000DC000030E0000130DF00FF30DE00FF306E
:100A5000DD00502D8312031360085F045E045D0403
:100A60000319332D342D562D0130D8000030D90014
:100A70000030DA000030DB005808DD025908031CA2
:100A8000590F432D442DDE025A08031C5A0F492DDD
:100A90004A2DDF025B08031C5B0F4F2D502DE00237
:100AA00083160313981C552D562D2A2D83125C088E
:100AB00099000800FB0033307B02031C602D612D80
:100AC000652D3230F9007908FB0006307B020318EF
:100AD0006A2D6B2D6F2D0630F9007908FB0002306E
:100AE000F0000030F1003230F9007B087902F200AA
:100AF000F301031CF3038A11B7248A117008013E25
:100B0000FA007A08FC007C08031D872D882D8A2DA9
:100B1000FC01FC0A14307C02031C8F2D902D942DB7
:100B20001330F9007908FC007C08080001308312BA
:100B30000313D8005808E9000130D8005808E8002D
:100B40000B3083120313DA002630D9005D30D80051
:100B5000D80BA82DD90BA82DDA0BA82D00008312D5
:100B60000313E901B501B6010130D8005808C100EE
:100B70000130D8005808C0000B3083120313DA008C
:100B80002630D9005D30D800D80BC42DD90BC42D28
:100B9000DA0BC42D000083120313C101B301B401A9
:100BA000080083120313E300E101E201E82D61086C
:100BB000630784008A1100248A118A111E258A1174
:100BC000013083120313E1070318E20A0030E20741
:100BD0006108630784008A1100248A11003A031D0A
:100BE000F22DF32DD72D0800831603138E158312D3
:100BF00003138501860107309F00831603138117B5
:100C00008115073081048B170B1785010230860090
:100C1000080083160313181519309900181283124F
:100C200003139817181683160313981683120313C9
:100C30008C12831603138C1608008312031390166C
:100C400010169011101590101014FF308F00833083
:100C50008E000C10831603130C140800640080012E
:0C0C6000840A04060319003404062F2E39
:02400E00503F21
:00000001FF
