:040000008A110F282A
:10000800FE00030EF6000408F7000A08F8007F084F
:10001800F9008A11952D8A111128F001F101F201D8
:10002800F301F40183132030840043308A1514252A
:100038008A11A0308400D3308A15142583018A11CF
:1000480025288A1564258A118A150C278A118A158C
:100058001C258A11F4308312C3000130C4008A15AC
:100068007C258A11B530CC008830CD008A156126F0
:100078008A113A30CC008830CD008A1561268A1161
:100088003230C3000030C4008A157C258A118A11D9
:100098005F278A115330CC008830CD008A1561263D
:1000A8008A11BA2B3108CA3E840080018316E30105
:1000B80083123108031D642883166308C33E82280F
:1000C8003103031D6B2883166308BC3E8228023067
:1000D8003106031D732883166308B53E8228033052
:1000E8003106031D7B2883166308AE3E8228043040
:1000F8003106031D8D2883166308A73E8400000877
:100108008312E10083166308A03E8400831261080D
:1001180080000130E10061088316E30707306302BD
:10012800031C5C28200A031DBA2BD301E201E20A52
:100138006208A03E840000088312E100610883166B
:10014800D30701308312E10061088316E207063005
:100158006202031C9C2826085306031DBA2B21089B
:100168008312E1006108AF00831622088312E100C0
:100178006108AE00831623088312E1006108AD0010
:10018800831624088312E1006108AC008316250851
:100198008312E1006108AB00831626088312E10090
:1001A80061088316D0008312B0012F03031DBA2BF8
:1001B800F0302E06031DF22883302D06031DF22889
:1001C8002C08031DF2282B03031DF2288330CC00D2
:1001D8008830CD008A1561268A11F1282E08031D62
:1001E800402967302D06031D40292C08031D40298E
:1001F8002903031D3C292B088A11F2278A119A30FA
:100208008312CC008830CD008A1561268A112B080C
:10021800031D1229EE30CC00883034292B03031D2E
:100228001929FC30CC008830342903302B06031DF3
:100238002129D630CC008830342904302B06031D00
:100248002929DE30CC008830342905302B06031DDF
:100258003129CD30CC0088303429F530CC008830B5
:10026800CD008A1561268A116A30CC008830512861
:100278007C30CC00883051282E08031D56292D08C3
:10028800031D56292C08031D56292B08031D562922
:10029800BC01B801C001BE01B001B00A0A30CC00EF
:1002A80089306F2B2E08031DB02903302D06031D3E
:1002B800B0292C08031DB0292B08E1006108AA0009
:1002C8002708CA002608C9002508CC002408CB0046
:1002D8002A088A1598268A118312B001B00A0A30B2
:1002E800E1006108C3002A088A15B6258A11E200D0
:1002F80062088316D700F6308312E1006108C30054
:10030800831657088A153C258A112A07E2006208D5
:100318008316D40030308312E10061088316D707B2
:1003280030308312E10061088316D407C13083128C
:10033800CC008830CD008A1561268A1183165708AB
:100348008A152C268A11831654088A152C268A1198
:100358000730CC0089306F2B2E08031D252A053065
:100368002D06031D252A2C08031D252A2B08E1002C
:100378006108AA00FF30C900FF30CA00FF30CB0077
:10038800FF30CC002A088A1598268A118316DA01CC
:10039800DB01DC01DD01DA308312E1006108C50010
:1003A800DC30E2006208C6002A088A1550278A1144
:1003B80083165B088312A30083165A088312A200CF
:1003C80083165D088312A10083165C088312A000BF
:1003D800B001B00A0A30E1006108C3002A088A1592
:1003E800B6258A11E20062088316D800F630831217
:1003F800E1006108C300831658088A153C258A1154
:100408002A07E20062088316D50030308312E10023
:1004180061088316D80730308312E100610883161B
:10042800D5078C308312CC008830CD008A15612620
:100438008A11831658088A152C268A11831655089E
:10044800F52A2E08031D072B07302D06031D072B41
:100458002C08031D072B2B08E1006108AA0083164E
:10046800DE01DF01E001E101DE308312E100610815
:10047800C500E030E2006208C6002A088A15502745
:100488008A1183165F088312A30083165E088312FD
:10049800A200831661088312A100831660088312E4
:1004A800A0000130E1006108C000BF013230E10066
:1004B8006108BA003A088A15F8258A11E10061082E
:1004C800B3000130E1006108BC002E302302E030A7
:1004D800031922020318872A23082702031D762AF4
:1004E8002208260203187A2ABB01892A2708230230
:1004F800031D802A260822020318872A0130E100FA
:100508006108BB00892AC001BC010130E100610813
:10051800BE00BD013230E1006108B60036088A1518
:10052800F8258A11E1006108B2000130E100610894
:10053800B8000A302102F030031920020318BB2A40
:1005480021082502031DAA2A200824020318AE2A1E
:10055800B701BD2A25082102031DB42A2408200258
:100568000318BB2A0130E1006108B700BD2ABE01AB
:10057800B801B001B00A0A30E1006108C3002A08D6
:100588008A15B6258A11E20062088316D900F6306A
:100598008312E1006108C300831659088A153C25B7
:1005A8008A112A07E20062088316D60030308312C7
:1005B800E10061088316D90730308312E100610831
:1005C8008316D607A8308312CC008830CD008A1550
:1005D80061268A11831659088A152C268A118316D2
:1005E80056088A152C268A110730CC008930CD0090
:1005F8008A1561268A112308D4002208D30021080D
:10060800D60020087A2B2D1D222B2C08E10061082A
:10061800BA003A088A15F8258A11E1006108B30082
:10062800BB010130E1006108BC00C001BE01B0019E
:10063800B00AA9011130CC0089303F2BAD1C552BD5
:100648002C08E1006108BA003A088A15F8258A11D1
:10065800E1006108B3000130E1006108BB0001302E
:10066800E1006108BC00C001BE01B001B00AA901E7
:10067800E630CC008830CD008A1561268A1127081B
:10068800D4002608D3002508D6002408D5008A11EE
:10069800CA238A111D30CC008930CD008A15612605
:1006A8008A112D1E822B2B08E1006108B60036083E
:1006B8008A15F8258A11E1006108B200B7010130F6
:1006C800E1006108B800C001BE01B001B00AA9018B
:1006D8000330CC008930CD008A1561268A1127089D
:1006E800D4002608D3002508D6002408D5008A118E
:1006F800CA238A111D30CC0089305128AD1DBA2B70
:100708002B08E1006108B60036088A15F8258A1119
:10071800E1006108B2000130E1006108B700013072
:10072800E1006108B800C001BE01B001B00AA9012A
:100738001830CC008930CD008A1561268A11270827
:10074800D4002608D3002508D6002408D5008A112D
:10075800CA238A111D30CC008930CD008A15612644
:100768008A11BA2B0130E1006108B10764008312D5
:1007780003133108CA3E8400831300030319562863
:1007880004303102031CB62BB101BA2BDD01DE01A6
:10079800DB01DC01D901DA01D701D8011030C3002F
:1007A8002730C4005408C6005308C5008A15D0264F
:1007B8008A114408E0004308DF006008C4005F08AD
:1007C800C3001030C5002730C6008A15D7258A1106
:1007D8004308D3024408031CD403D402E830C300FE
:1007E8000330C4005408C6005308C5008A15D02633
:1007F8008A114408DE004308DD005E08C4005D0875
:10080800C300E830C5000330C6008A15D7258A1111
:100818004308D3024408031CD403D4026430C30041
:100828000030C4005408C6005308C5008A15D026F5
:100838008A114408DC004308DB005C08C4005B083C
:10084800C3006430C5000030C6008A15D7258A1158
:100858004308D3024408031CD403D4020A30C3005B
:100868000030C4005408C6005308C5008A15D026B5
:100878008A114408DA004308D9005A08C400590804
:10088800C3000A30C5000030C6008A15D7258A1172
:100898004308D3024408031CD403D4025408D800E4
:1008A8005308D7003030DF070318E00A0030E007AC
:1008B8003030DD070318DE0A0030DE073030DB0792
:1008C8000318DC0A0030DC073030D9070318DA0ACD
:1008D8000030DA073030D7070318D80A0030D807B5
:1008E8005F08600403197C2C5F088A152C268A117E
:1008F8005F086004031D842C5D085E040319882CBE
:100908005D088A152C268A115F086004031D942C43
:100918005D085E04031D942C5B085C040319982C85
:100928005B088A152C268A115F086004031DA82C11
:100938005D085E04031DA82C5B085C04031DA82C3D
:1009480059085A040319AC2C59088A152C268A11FF
:1009580057088A152C268A112130CC008930CD0001
:100968008A1561268A111030C3002730C400560842
:10097800C6005508C5008A15D0268A114408E0002B
:100988004308DF006008C4005F08C3001030C500DA
:100998002730C6008A15D7258A114308D50244088E
:1009A800031CD603D602E830C3000330C40056083F
:1009B800C6005508C5008A15D0268A114408DE00ED
:1009C8004308DD005E08C4005D08C300E830C500C8
:1009D8000330C6008A15D7258A114308D502440872
:1009E800031CD603D6026430C3000030C400560886
:1009F800C6005508C5008A15D0268A114408DC00AF
:100A08004308DB005C08C4005B08C3006430C50011
:100A18000030C6008A15D7258A114308D502440834
:100A2800031CD603D6020A30C3000030C40056089F
:100A3800C6005508C5008A15D0268A114408DA0070
:100A48004308D9005A08C4005908C3000A30C50031
:100A58000030C6008A15D7258A114308D5024408F4
:100A6800031CD603D6025608D8005508D7003030E4
:100A7800DF070318E00A0030E0073030DD0703180D
:100A8800DE0A0030DE073030DB070318DC0A0030EE
:100A9800DC073030D9070318DA0A0030DA073030BB
:100AA800D7070318D80A0030D8075F08600403196D
:100AB800612D5F088A152C268A115F086004031DC2
:100AC800692D5D085E0403196D2D5D088A152C26B5
:100AD8008A115F086004031D792D5D085E04031DFB
:100AE800792D5B085C0403197D2D5B088A152C267B
:100AF8008A115F086004031D8D2D5D085E04031DC7
:100B08008D2D5B085C04031D8D2D59085A040319AB
:100B1800912D59088A152C268A1157088A152C26D2
:100B28000800831203138C1E052E1A08F500750899
:100B3800F4000310861D0314031CA62D831203134F
:100B48008615A92D83120313861128030319542F20
:100B5800740A031DB02DC10107307202031CBA2D9F
:100B68007208031DEC2D740A031DEC2D7308031D78
:100B7800C22D7408F5007208C33EE42D7303031DEB
:100B8800CA2D7408F5007208BC3EE42D02307306C5
:100B9800031DD32D7408F5007208B53EE42D03300B
:100BA8007306031DDC2D7408F5007208AE3EE42DB3
:100BB80004307306031DEC2D7408F5007208A73E77
:100BC80084007508831380000130F5007508F2076A
:100BD80007307206031D032EF2010130F500730879
:100BE800CA3E84007508831380000430730203181A
:100BF800022E0130F5007508F307032EF3018C125D
:100C0800542F0C1C542F83160C14FF3083128F00A2
:100C180083308E000F3041020318172E0130F50083
:100C28007508C1071B2E720803191B2EF201330821
:100C380035020318242E0130F5007508B507B62EC5
:100C4800B5013C03031DB22E3B08031D472E2E3071
:100C58002702E0300319260203185E2E0130A6078A
:100C68000318A70A0030A707710803193F2E083098
:100C78007102031C442E0730F5007508F1005E2E42
:100C88000130F1025E2E26082704031D4E2E28038C
:100C9800031D5E2E0130A6020030031CA703A70225
:100CA80007307102031C5A2EF1015E2E0130F50047
:100CB8007508F10727082306031D642E2608220657
:100CC800031D6B2E4003031D6B2EC001BC01710870
:100CD800323E840088300318013EFF008A15002048
:100CE8008A11F50005087506FE3975068500710834
:100CF8002A3E840088300318013EFF008A15002030
:100D08008A11F500F50CF50C050875067F3975068E
:100D180085007108223E840088300318013EFF00D8
:100D28008A1500208A11F500F50EF50DF50D050858
:100D38007506BF397506850071081A3E840088302B
:100D48000318013EFF008A1500208A11F500F50DF1
:100D580005087506FD3975068500B62E051085133C
:100D680005138510320834020318BF2E0130F50030
:100D78007508B407532FB4013803031D4F2F3708E4
:100D8800031DE22E0A302502F0300319240203184D
:100D9800F92E0130A4070318A50A0030A50770082A
:100DA8000319DA2E08307002031CDF2E0730F50015
:100DB8007508F000F92E0130F002F92E24082504F8
:100DC800031DE92E2803031DF92E0130A40200306B
:100DD800031CA503A50207307002031CF52EF001C1
:100DE800F92E0130F5007508F00725082106031DC6
:100DF800FF2E24082006031D062F3E03031D062F81
:100E0800BE01B8017008323E840088300318013EE4
:100E1800FF008A1500208A11F500F50E06087506F0
:100E2800EF397506860070082A3E8400883003185A
:100E3800013EFF008A1500208A11F500F50EF50D18
:100E480006087506DF39750686007008223E84009C
:100E580088300318013EFF008A1500208A11F5002A
:100E6800F50EF50DF50D06087506BF3975068600F1
:100E780070081A3E840088300318013EFF008A1566
:100E880000208A11F500F50CF50C060875067F3967
:100E980075068600532F06128612061386130C1049
:100EA8007908FF0078088A0077088400760E8300A6
:100EB800FE0E7E0E0900A801A80A3230C3000030D9
:100EC800C4008A157C258A113230C6004608BA004B
:100ED8000130C6004608BB000130C6004608BC0009
:100EE800E430C3005730C4008A157C258A11BC0140
:100EF800A601A7016430C3000030C4008A157C2510
:100F08008A113230C6004608BA00BB010130C6005B
:100F18004608BC00F430C3000130C4008A157C25A3
:100F28008A11BC01A601A7013230C3000030C400F9
:100F38008A157C258A113230C6004608B600013071
:100F4800C6004608B7000130C6004608B800703031
:100F5800C3001730C4008A157C258A11B801A40182
:100F6800A5016430C3000030C4008A157C258A11AD
:100F78003230C6004608B600B7010130C600460840
:100F8800B800EE30C3000230C4008A157C258A11EF
:100F9800B801A401A5013230C6004608BA00BB0159
:100FA8000130C6004608BC009430C3001130C400AC
:100FB8008A157C258A11BC013230C6004608B60065
:100FC800B7010130C6004608B800E830C300033056
:100FD800C4008A157C25B801A8010800CA004A087F
:100FE800C9004908C600FF308A152B250800FF30C4
:060FF8008A154E250800D9
:10100000FF1B0A2883137F1883170008840A03191B
:10101000FF0A08007F087F398A000408840A031940
:10102000FF0A820006340C34123419341F3425347C
:101030002C343234003400340034003400340134B1
:1010400001340134003400340034013401340134FB
:1010500000340034003401340134013400340034ED
:1010600000340034013401340034003400340034DE
:101070000034013447346F3474346F3420345034C6
:1010800041344E34203461346E346434203454346A
:1010900049344C345434203448346F346D3465341E
:1010A0000D340A340034573461346934743469348B
:1010B0006E346734203466346F34723420346334D1
:1010C0006F346D346D3461346E34643473340D3484
:1010D0000A3400340D340A3450344C34453441342D
:1010E0005334453420345234453442344F344F3431
:1010F00054340D340A3400340D340A344E3445343B
:101100004534443420345234453442344F344F341F
:1011100054340D340A34003443344C3445344134AF
:1011200052342034503452344534533445345434DA
:101130002034003453344534543420344234413460
:10114000553444342034523441345434453400341A
:1011500047344F3454344F342034503452344534AF
:10116000533445345434203400340D340A340D34AF
:101170000A34533474346134723474340D340A34A0
:1011800000345334453454342034503452344534CC
:10119000533445345434203400343134313435340C
:1011A0003234303430340D340A340034313439348C
:1011B0003234303430340D340A340034333438347B
:1011C0003434303430340D340A3400345234493439
:1011D00047344834543420342834003432343434DE
:1011E000303430340D340A34003439343634303449
:1011F00030340D340A34003434343834303430343C
:101200000D340A34003444344F3457344E342034CF
:1012100028340034533454344F3450342034283478
:1012200000344C34453446345434203428340034AB
:101230005534503420342834003429340D340A34E1
:0812400000342C34203400348A
:101A280064008001840A0406031900340406152D95
:101A38008312901610169011101590101014FF3084
:101A48008F0083308E000C1083160C140800C80019
:101A580048088A154E258A15831246060319080078
:101A68004608C7004708C30048088A159525080096
:101A78008312C600C501461C452D4308C40044080E
:101A8800C5070310C30D0310C60C4608031D3F2DE0
:101A9800450808008312C400522D8312640083167F
:101AA80003139C18512D8312440883169B003F3062
:101AB8008312C300430883169C051C141A080800E7
:101AC80083168E158E180E1C6C2D8312A901A90A77
:101AD80083128501860107309F00831681178115BF
:101AE800073081048B170B17850102308600080028
:101AF8006400013083120313C3020030031CC403C3
:101B0800C402430A0319440A031908006400C730D1
:101B180083120313C500902DC50B8F2D932D000044
:101B28007D2DC50083169C18962D831245088316B3
:101B38009B008312430883169A003F308312C40027
:101B4800440883169C0503108B1B03148B131C1568
:101B580055309D00AA309D009C141C11031C0800E0
:101B68008B170800C500C70143080319D52DC60106
:101B7800C60AC31BC62D0310C30D0130C400440898
:101B8800C607BD2D0310C70D43084502031CD02D01
:101B98004308C50247140310C30C0130C602031DD5
:101BA800C62D47080800C701C801431CE12D450898
:101BB800C7070318C80A4608C80701300310C50D2F
:101BC800C60DFF3E031DE22D01300310C40CC30CEB
:101BD800FF3E031DE92D43084404031DD92D480881
:101BE800C4004708C3000800CE0033304E02031C6F
:101BF800012E3230CC004C08CE0006304E020318BD
:101C0800092E0630CC004C08CE000230C30000304C
:101C1800C4003230CC004E084C02C500C601031C7B
:101C2800C6038A15A7278A154308013ECD004D082B
:101C3800CF004F08031D222ECF01CF0A14304F02C8
:101C4800031C2A2E1330CC004C08CF004F08080084
:101C58008312C7000030CB000130CA00FF30C90032
:101C6800FF30C800532E0130C3000030C4000030DC
:101C7800C5000030C6004308C8024408031C440FCE
:101C8800462E472EC9024508031C450F4C2E4D2EE3
:101C9800CA024608031C460F522E532ECB02831647
:101CA80098185D2E83124B084A0449044804031D02
:101CB800372E8312470899000800D101D201510834
:101CC8004C07CF004D08CE000318CE0AD11BCE0317
:101CD800831203134E08D0005008FF004F088400F9
:101CE8008A1500208A15003A0319080051084C0784
:101CF800CF004D08CE000318CE0AD11BCE038312A5
:101D080003134E08D0005008FF004F0884008A15BE
:101D180000208A158A152C268A150130D107031848
:101D2800D20A0030D207632ECF004F08CD00013011
:101D38000310CD0DFF3E031D9C2E03104D0DCE004C
:101D48004E08D00032304F02031808004908CD0071
:101D58004D08C60050088A152B258A1583124A0893
:101D6800CD004D08C6005008013E8A152B258A155E
:101D780083124B08CD004D08C6005008023E8A1554
:101D88002B258A1583124C08CD004D08C600500833
:101D9800033E8A152B250800C901CA0143084404DB
:101DA8000319072FC801C80AC41BE62E0130031007
:101DB800C30DC40DFF3E031DDB2E0130C7004708CD
:101DC800C807D82E01300310C90DCA0DFF3E031DE8
:101DD800E72E44084602031DF32E43084502031C60
:101DE800FC2E4308C5024408031CC603C602491456
:101DF80001300310C40CC30CFF3E031DFD2E01303F
:101E0800C802031DE62E4A08C4004908C30008009A
:101E18008A11FB278A158312C5004508C7002C2F95
:101E2800831618111930272F831618153330272FCA
:101E3800831618150C30272F831618150630272FF0
:101E48008316181501309900452F83161815162F7B
:101E58004708C500C6014608003A0319342F292F40
:101E68004508003A0319142F013A0319182F023AAA
:101E780003191C2F073A0319202F013A0319242F9D
:101E8800292F18128312981718168316981683127A
:101E98008C1283168C160800C9004908C700013047
:101EA8000310C70DFF3E031D542F0310470DC80034
:101EB8004808CA0032304902031808004A088A153F
:101EC8004E258A158312C700C801450884004708B3
:101ED80083138000840A480880004A08013E8A1556
:101EE8004E258A158312C700C8014708C800C701D4
:101EF80045088400470883138004840A480880043E
:101F08004A08023E8A154E258A158312C700C80161
:101F180046088400470883138000840A4808800024
:101F28004A08033E8A154E258312C700C801470890
:101F3800C800C70146088400470883138004840A40
:101F4800480880040800C901C41FB12FC309C40987
:101F5800C30A0319C40AC901C90AC61FBC2FC50987
:101F6800C609C50A0319C60A0130C7004708C906C9
:101F7800CA01CB01430844040319F32FC801C80A56
:101F8800C41BD22F01300310C30DC40DFF3E031D27
:101F9800C72F0130C7004708C807C42F01300310F6
:101FA800CA0DCB0DFF3E031DD32F44084602031D67
:101FB800DF2F43084502031CE82F4308C5024408E5
:101FC800031CC603C6024A1401300310C40CC30C18
:101FD800FF3E031DE92F0130C802031DD22F490817
:101FE8000319FB2FCA09CB09CA0A0319CB0A4B08E4
:081FF800C4004A08C300080000
:02400E00543F1D
:00000001FF
