:040000008A110F282A
:10000800FE00030EF8000408F9000A08FA007F0849
:10001800FB008A11162B8A11112870308400763063
:100028008A1538258A1183135030840070308A1558
:1000380038258A11A0308400D8308A1538258301E4
:100048008A1126288A15A1258A118A11B7278A11AB
:100058008A1549258A118A1569258A11F430A00064
:100068000130A1008A15D1258A1194308A156A2693
:100078008A1129308A156A268A113230A000003088
:10008800A1008A15D1258A118A11D9268A114030F2
:100098008A156A268A11062B6008CA3E84008001E8
:1000A800CF016008031D5B284F08C33E7528600315
:1000B800031D61284F08BC3E752802306006031DE9
:1000C80068284F08B53E752803306006031D6F2861
:1000D8004F08AE3E752804306006031D7D284F0882
:1000E800A73E84000008C3004F08A03E84004308D0
:1000F80080000130C3004308CF0707304F02031CBC
:1001080055288316200A031D062B8312C501CE012C
:10011800CE0A4E08A03E84000008C3004308C50765
:100128000130C3004308CE0706304E02031C8D2859
:100138008316260883124506031D062B83162108FD
:100148008312C3004308DE00831622088312C3000B
:100158004308DD00831623088312C3004308DC002C
:10016800831624088312C3004308DB00831625087E
:100178008312C3004308DA00831626088312C300DB
:1001880043088316D0008312DF015E03031D062B8C
:10019800F0305D06031DDF2883305C06031DDF2871
:1001A8005B08031DDF285A03031DDF28B4308A15B6
:1001B8006A268A11DE285D08031D342967305C062B
:1001C800031D34295B08031D34295803031D2E29F8
:1001D8005A088A1540258A1163308A15EA258A113A
:1001E8001329CD308A156A268A112C29D7308A1509
:1001F8006A268A112C29BB308A156A268A112C296D
:10020800C1308A156A268A112C29AD308A156A26CA
:100218008A112C29D2308A156A268A112C295A0863
:10022800C300C4014408003A03191B290E294308D6
:10023800003A0319F528013A0319FA28023A031972
:10024800FF28073A03190429013A031909290E2935
:100258008A302F299E308A15EA258A11B4304C2815
:100268005D08031D57295C08031D57295B08031DFA
:1002780057295A08031D5729EA01E701EC01EB0148
:10028800DF01DF0AA6308A15EA258A115708B60069
:100298005608B5005508B8005408B7008A11EC2470
:1002A8008A11EC304C285D08031D852903305C0653
:1002B800031D85295B08031D85295A08C3004308C7
:1002C800D9005708A7005608A6005508A9005408E1
:1002D800A80059088A15F6268A118312DF01DF0A59
:1002E8005708BA005608B9005508BC005408BB00A6
:1002F8007E30C3004308BD0059088A156A278A1151
:10030800062B5D08031DCB2905305C06031DCB2990
:100318005B08031DCB295A08C3004308D900FF30E6
:10032800A600FF30A700FF30A800FF30A900590839
:100338008A15F6268A118312C601C701C801C901A8
:100348004630C3004308A2004830C4004408A30054
:1003580059088A15A9278A114708D3004608D200E8
:100368004908D1004808D000DF01DF0A5308BA0065
:100378005208B9005108BC005008BB005530C300F2
:100388004308BD0059088A156A278A11062B5D089B
:10039800031D702A07305C06031D702A5B08031DC5
:1003A800702A5A08C3004308D900CA01CB01CC01FE
:1003B800CD014A30C3004308A2004C30C4004408B1
:1003C800A30059088A15A9278A114B08D3004A089F
:1003D800D2004D08D1004C08D0000130C3004308BA
:1003E800EC008316D50132308312C3004308E800BD
:1003F80068088A158E268A11C3004308E200013076
:10040800C3004308EA002D305302B43003195202E6
:100418000318252A53085702031D142A52085602A6
:100428000318182AE901272A57085302031D1E2A10
:10043800560852020318252A0130C3004308E90070
:10044800272AEC01EA010130C3004308EB008316B8
:10045800D40132308312C3004308E50065088A15C9
:100468008E268A11C3004308E1000130C300430807
:10047800E70008305102FC300319500203185B2AC8
:1004880051085502031D4A2A5008540203184E2ADF
:10049800E6015D2A55085102031D542A54085002EA
:1004A80003185B2A0130C3004308E6005D2AEB010C
:1004B800E701DF01DF0A5308BA005208B900510802
:1004C800BC005008BB007130C3004308BD00590888
:1004D8008A156A278A11062B5C1D912A5B08C300BE
:1004E8004308E80068088A158E268A11C300430865
:1004F800E200E9010130C3004308EA00EC01EB0126
:10050800DF01DF0AD8015708BA005608B9005508B4
:10051800BC005408BB00E130B42ADC1CB72A5B08D5
:10052800C3004308E80068088A158E268A11C300AC
:100538004308E2000130C3004308E9000130C3006A
:100548004308EA00EC01EB01DF01DF0AD801570894
:10055800BA005608B9005508BC005408BB00C7309B
:100568008A15B9258A115C1EDB2A5A08C30043087C
:10057800E50065088A158E268A11C3004308E10044
:10058800E6010130C3004308E700EC01EB01DF019D
:10059800DF0AD8015708BA005608B9005508BC0048
:1005A8005408BB00DC308A15B9258A11062BDC1DDE
:1005B800062B5A08C3004308E50065088A158E26ED
:1005C8008A11C3004308E1000130C3004308E60074
:1005D8000130C3004308E700EC01EB01DF01DF0A4B
:1005E800D8015708BA005608B9005508BC00540885
:1005F800BB00E9308A15B9258A11062B0130C300E2
:100608004308E0076400831203136008CA3E8400AD
:10061800831300030319502804306002031C022BC3
:10062800E001062B831203138C1E912B1A08F60087
:100638007608F500EE01ED010310861D0314031C76
:10064800292B8312031386152C2B8312031386116F
:1006580070030319E12C750A031D332BEF010730D2
:100668007302031C5F2B7308031D782B750A03198B
:100678005F2B782B7508F6007308C33E8400760854
:10068800831380000130F6007608F307782B75088D
:10069800F6007308BC3E422B7508F6007308B53E99
:1006A800422B7508F6007308AE3E422B7508F6001B
:1006B8007308A73E422B7408F600F7017708003A42
:1006C8000319672B782B7608003A03193E2B013A59
:1006D80003194B2B033A0319502B013A0319552BD5
:1006E800073A03195A2B782B07307306031D8F2BF3
:1006F800F3010130F6007408CA3E840076088313BB
:1007080080000430740203188E2B0130F60076083E
:10071800F4078F2BF4018C12E12C0C1CB92B0C1054
:1007280083160C140C3083128F0026308E000C10A8
:1007380078306E020318A52B0130F6007608EE0714
:10074800E12CEE0102306D020318AF2B0130F600E8
:100758007608ED07E12CED01181198101A081A080F
:100768001812981318169817E12C8C1CE12C8C1071
:100778000F306F020318C52B0130F6007608EF071B
:10078800C92B73080319C92BF30162086402031803
:10079800D22B0130F6007608E407542CE4016A03F2
:1007A800031D502C6908031DF52B2D305702B3305B
:1007B8000319560203180C2C0130D6070318D70A60
:1007C8000030D70772080319ED2B08307202031C9A
:1007D800F22B0730F6007608F2000C2C0130F202FA
:1007E8000C2C56085704031DFC2B7003031D0C2CFE
:1007F8000130D6020030031CD703D702073072023B
:10080800031C082CF2010C2C0130F6007608F207C4
:1008180057085306031D122C56085206031D192C9F
:100828006C03031D192CEC01EA017208213E8400B7
:100838008A1100258A11F60005087606FE39760623
:1008480085007208193E84008A1100258A11F60075
:10085800F60CF60C050876067F39760685007208D0
:10086800113E84008A1100258A11F600F60EF60D55
:10087800F60D05087606BF39760685007208093E2A
:1008880084008A1100258A11F600F60D05087606FF
:10089800FD3976068500542C05108513051385103F
:1008A8006108630203185D2C0130F6007608E3073F
:1008B800E12CE3016703031DDD2C6608031D802C72
:1008C80008305502FB30031954020318972C0130E5
:1008D800D4070318D50A0030D50771080319782CF6
:1008E80008307102031C7D2C0730F6007608F100F1
:1008F800972C0130F102972C54085504031D872CBE
:100908007003031D972C0130D4020030031CD5035B
:10091800D50207307102031C932CF101972C01308A
:10092800F6007608F10755085106031D9D2C54085A
:100938005006031DA42C6B03031DA42CEB01E70137
:100948007108213E84008A1100258A11F600F60EEE
:1009580006087606EF39760686007108193E840087
:100968008A1100258A11F600F60EF60D060876069D
:10097800DF39760686007108113E84008A11002549
:100988008A11F600F60EF60DF60D06087606BF3942
:10099800760686007108093E84008A1100258A11AE
:1009A800F600F60CF60C060876067F397606860001
:1009B800E12C06128612061386137B08FF007A08BC
:1009C8008A0079088400780E8300FE0E7E0E0900E6
:1009D8003608AA003508A9008A11F3258A11E630DD
:1009E8008A15EA258A113808AA003708A9008A1149
:0409F800F3250800DB
:100A000005308A000408840A8207003406340C3456
:100A1000123419341F3425342C3432340034003469
:100A20000034003400340134013401340034003423
:100A30000034013401340134003400340034013412
:100A40000134013400340034003400340134013402
:100A500000340034003400340034013447346F343F
:100A600074346F342034503441344E342034613483
:100A70006E3464342034543449344C345434203487
:100A800048346F346D34653400345734613469341C
:100A9000743469346E346734203466346F3472349D
:100AA000203463346F346D346D3461346E346434A7
:100AB0007334003443344C3445344134523420349C
:100AC0005034523445345334453454342034003493
:100AD000533445345434203442344134553444344E
:100AE00020345234413454344534003447344F3484
:100AF00054344F3420345034523445345334453414
:100B00005434203400345334453454342034503475
:100B100052344534533445345434203400340D3485
:100B20000A3450344C344534413453344534203441
:100B300000340D340A340D340A34533474346134BF
:100B40007234743400340D340A344E344534453430
:100B5000443420340034533454344F34503420342B
:100B60002834003431343134353432343034303494
:100B700000345234453442344F344F34543400340A
:100B8000313439343234303430340034333438345E
:100B900034343034303400345234493447344834F7
:100BA0005434003432343434303430340034393452
:100BB0003634303430340034343438343034303433
:100BC000003444344F3457344E3400344C344534BC
:100BD0004634543400342C342034003455345034EA
:100BE000003429340034B101B201AF01B001AD01CC
:100BF000AE01AB01AC011030A0002730A1002A08E3
:100C0000A3002908A2008A152E278A112108B40002
:100C10002008B3003408A1003308A0001030A2005F
:100C20002730A3008A1528268A112008A902210846
:100C3000031CAA03AA02E830A0000330A1002A087E
:100C4000A3002908A2008A152E278A112108B200C4
:100C50002008B1003208A1003108A000E830A2004D
:100C60000330A3008A1528268A112008A90221082A
:100C7000031CAA03AA026430A0000030A1002A08C5
:100C8000A3002908A2008A152E278A112108B00086
:100C90002008AF003008A1002F08A0006430A20097
:100CA0000030A3008A1528268A112008A9022108ED
:100CB000031CAA03AA020A30A0000030A1002A08DF
:100CC000A3002908A2008A152E278A112108AE0048
:100CD0002008AD002E08A1002D08A0000A30A200B7
:100CE0000030A3008A1528268A112008A9022108AD
:100CF000031CAA03AA022A08AC002908AB00303062
:100D0000B3070318B40A0030B4073030B107031832
:100D1000B20A0030B2073030AF070318B00A003013
:100D2000B0073030AD070318AE0A0030AE073030E0
:100D3000AB070318AC0A0030AC07330834040319BE
:100D4000A52E33088A15C2268A1133083404031DE0
:100D5000AD2E310832040319B12E31088A15C2268E
:100D60008A1133083404031DBD2E31083204031DDB
:100D7000BD2E2F0830040319C12E2F088A15C22654
:100D80008A1133083404031DD12E31083204031DA7
:100D9000D12E2F083004031DD12E2D082E04031947
:100DA000D52E2D088A15C2268A112B088A15C2262F
:100DB0000800F001F00A3230A3002308E8000130F7
:100DC000A3002308E9000130A3002308EA00323021
:100DD000A3002308E5000130A3002308E60001304A
:100DE000A3002308E7007030A0001730A1008A1587
:100DF000D1258A11E701D401D5016430A00000306B
:100E0000A1008A15D1258A113230A3002308E500FC
:100E1000E6010130A3002308E700EE30A000023015
:100E2000A1008A15D1258A11E701D401D50122300C
:100E3000A0003D30A1008A15D1258A11EA01D60112
:100E4000D7016430A0000030A1008A15D1258A1195
:100E50003230A3002308E800E9010130A300230891
:100E6000EA00F430A0000130A1008A15D1258A11D2
:100E7000EA01D601D7013230A3002308E800E901D6
:100E80000130A3002308EA003230A3002308E50064
:100E9000E6010130A3002308E700E830A00003309A
:100EA000A1008A15D1258A11E7017A30A0000D3002
:100EB000A1008A15D125EA01F0010800A601A11FB1
:100EC000682FA009A109A00A0319A10AA601A60A70
:100ED000A31F732FA209A309A20A0319A30A0130B1
:100EE000A4002408A606A701A801200821040319CC
:100EF000AA2FA501A50AA11B892F01300310A00D5F
:100F0000A10DFF3E031D7E2F0130A4002408A5077C
:100F10007B2F01300310A70DA80DFF3E031D8A2F64
:100F200021082302031D962F20082202031C9F2F55
:100F30002008A2022108031CA303A30227140130E6
:100F40000310A10CA00CFF3E031DA02F0130A50231
:100F5000031D892F26080319B22FA709A809A70A7C
:100F60000319A80A2808A1002708A00008008A1170
:100F7000FB278A118312A2002208A400D72F831610
:100F800018111930D22F831618153330D22F83162B
:100F900018150C30D22F831618150630D22F831651
:100FA000181501309900F02F83161815C12F240849
:100FB000A200A3012308003A0319DF2FD42F22082F
:100FC000003A0319BF2F013A0319C32F023A03193C
:100FD000C72F073A0319CB2F013A0319CF2FD42F6C
:100FE00018128312981718168316981683128C12EB
:0E0FF00083168C160800FF308A158B2508002A
:101A700064008001840A0406031900340406392D29
:101A8000A7002708A6002608A300FF308A155825BE
:101A90000800831290161016901110159010101453
:101AA0000C308F0026308E000C1083160C140800AA
:101AB000A50025088A158B258A158312230603198C
:101AC00008002308A4002408A00025088A1507267A
:101AD00008008730831292051208FC390138920001
:101AE000FA308316920083128C1083168C148312A2
:101AF00012150800A300A201231C822D2008A100BA
:101B00002108A2070310A00D0310A30C2308031D36
:101B10007C2D220808008312A1008F2D83126400FF
:101B2000831603139C188E2D8312210883169B00A5
:101B30003F308312A000200883169C051C141A084D
:101B4000080083168E158E180E1CA92D8312D8013D
:101B5000D80A83128501860107309F0083168117FA
:101B60008115073081048B170B1785010230860021
:101B70000800BD003D088A15EA258A15AA308A1595
:101B8000EA258A153A08B6003908B5003C08B800BD
:101B90003B08B7008A11EC248A15EC308A156A26B6
:101BA00008006400013083120313A0020030031CFC
:101BB000A103A102200A0319210A031908006400E5
:101BC000C73083120313A200E52DA20BE42DE82DEC
:101BD0000000D22D8312AB00A901AA0129082B070E
:101BE00084008A1100258A15003A03190800290883
:101BF0002B0784008A1100258A158A15C2268A15AA
:101C00000130A9070318AA0A0030AA07EE2DA20086
:101C100083169C18082E8312220883169B008312B9
:101C2000200883169A003F308312A10021088316F2
:101C30009C0503108B1B03148B131C1555309D0042
:101C4000AA309D009C141C11031C08008B1708006F
:101C5000A401A501201C322E2208A4070318A50AFE
:101C60002308A50701300310A20DA30DFF3E031D9D
:101C7000332E01300310A10CA00CFF3E031D3A2EA1
:101C800020082104031D2A2E2508A1002408A000F5
:101C90000800A200A40120080319682EA301A30ACA
:101CA000A01B592E0310A00D0130A1002108A3078D
:101CB000502E0310A40D20082202031C632E2008BE
:101CC000A20224140310A00C0130A302031D592EFC
:101CD00024080800AB00A901AA0129082B078400E9
:101CE0008A1100258A15003A0319862E29082B0728
:101CF00084008A1100258A158A15C2268A150130AA
:101D0000A9070318AA0A0030AA076D2E0C308A15FD
:101D1000C2268A150A308A15C2260800AB00333065
:101D20002B02031C972E3230A9002908AB00063085
:101D30002B0203189F2E0630A9002908AB000230A1
:101D4000A0000030A1003230A9002B082902A20017
:101D5000A301031CA3038A115E278A152008013EF4
:101D6000AA002A08AC002C08031DB82EAC01AC0A4E
:101D700014302C02031CC02E1330A9002908AC001B
:101D80002C080800A4000030A8000130A700FF3094
:101D9000A600FF30A500E82E0130A0000030A10011
:101DA0000030A2000030A3002008A5022108031C77
:101DB000210FDB2EDC2EA6022208031C220FE12EAF
:101DC000E22EA7022308031C230FE72EE82EA80209
:101DD00083169818F22E8312280827042604250457
:101DE000031DCC2E8312240899000800AC002C0897
:101DF000AA0001300310AA0DFF3E031DFA2E0310A6
:101E00002A0DAB002B08AD0032302C02031808005D
:101E10002608AA002A08A3002D088A1558258A1525
:101E200083122708AA002A08A3002D08013E8A155C
:101E300058258A1583122808AA002A08A3002D080D
:101E4000023E8A1558258A1583122908AA002A08F5
:101E5000A3002D08033E8A1558250800A601A701F6
:101E6000200821040319652FA501A50AA11B442FF1
:101E700001300310A00DA10DFF3E031D392F0130CD
:101E8000A4002408A507362F01300310A60DA70DC6
:101E9000FF3E031D452F21082302031D512F20085B
:101EA0002202031C5A2F2008A2022108031CA303AC
:101EB000A302261401300310A10CA00CFF3E031D49
:101EC0005B2F0130A502031D442F2708A10026081F
:101ED000A0000800C1000A30BE003E08A000410872
:101EE0008A1549268A15BF003F08C200F630BE0099
:101EF0003E08A00042088A157A258A154107BF00CE
:101F00003F08C0003030BE003E08C2073030BE007F
:101F10003E08C0073D088A15EA258A1542088A1539
:101F2000C2268A1540088A15C2268A15AA308A1543
:101F3000EA258A153A08B6003908B5003C08B80009
:101F40003B08B7008A11EC248A15EC308A156A2602
:101F50000800A6002608A40001300310A40DFF3ECF
:101F6000031DAD2F0310240DA5002508A700323056
:101F700026020318080027088A158B258A15831264
:101F8000A400A50122088400240883138000840A89
:101F9000250880002708013E8A158B258A158312A3
:101FA000A400A5012408A500A40122088400240897
:101FB00083138004840A250880042708023E8A15BA
:101FC0008B258A158312A400A50123088400240808
:101FD00083138000840A250880002708033E8A15A1
:101FE0008B258312A400A5012408A500A4012308C1
:101FF0008400240883138004840A250880040800D0
:02400E00543F1D
:00000001FF
