:040000008A110F282A
:10000800FE00030EF8000408F9000A08FA007F0849
:10001800FB008A11122B8A11112870308400763067
:100028008A156F258A1183135030840070308A1521
:100038006F258A11A0308400D5308A156F25830179
:100048008A1126288A15D9258A118A11B7278A1173
:100058008A1580258A11F4308312A0000130A1008E
:100068008A1509268A1194308A15A2268A11293000
:100078008A15A2268A113230A0000030A1008A1504
:1000880009268A118A11D9268A1140308A15A22692
:100098008A11022B6008CA3E84008001CF016008E3
:1000A800031D59284F08C33E73286003031D5F28AA
:1000B8004F08BC3E732802306006031D66284F08AF
:1000C800B53E732803306006031D6D284F08AE3E09
:1000D800732804306006031D7B284F08A73E840060
:1000E8000008C3004F08A03E840043088000013088
:1000F800C3004308CF0707304F02031C5328831659
:10010800200A031D022B8312C501CE01CE0A4E0818
:10011800A03E84000008C3004308C5070130C3009F
:100128004308CE0706304E02031C8B288316260888
:1001380083124506031D022B831621088312C30070
:100148004308DE00831622088312C3004308DD003B
:10015800831623088312C3004308DC00831624088F
:100168008312C3004308DB00831625088312C300EB
:100178004308DA00831626088312C300430883164F
:10018800D0008312DF015E03031D022BF0305D06F1
:10019800031DDD2883305C06031DDD285B08031D75
:1001A800DD285A03031DDD28B4308A15A2268A11DA
:1001B800DC285D08031D322967305C06031D3229DF
:1001C8005B08031D32295803031D2C295A088A1578
:1001D80077258A1163308A1522268A111129CD3094
:1001E8008A15A2268A112A29D7308A15A2268A11A9
:1001F8002A29BB308A15A2268A112A29C1308A15D4
:10020800A2268A112A29AD308A15A2268A112A29FE
:10021800D2308A15A2268A112A295A08C300C40195
:100228004408003A031919290C294308003A03190C
:10023800F328013A0319F828023A0319FD28073A66
:1002480003190229013A031907290C298A302D2993
:100258009E308A1522268A11B4304A285D08031D6B
:1002680055295C08031D55295B08031D55295A08A3
:10027800031D5529EA01E701ED01EB01DF01DF0A62
:10028800A6308A1522268A115708B6005608B500E6
:100298005508B8005408B7008A15B1258A11EC3002
:1002A8004A285D08031D832903305C06031D832942
:1002B8005B08031D83295A08C3004308D90057085F
:1002C800A7005608A6005508A9005408A800590810
:1002D8008A11C5248A118312DF01DF0A5708BA0080
:1002E8005608B9005508BC005408BB007E30C3004E
:1002F8004308BD0059088A156A278A11022B5D0830
:10030800031DC92905305C06031DC9295B08031DA7
:10031800C9295A08C3004308D900FF30A600FF3096
:10032800A700FF30A800FF30A90059088A11C5248A
:100338008A118312C601C701C801C9014630C3002A
:100348004308A2004830C4004408A30059088A158D
:10035800A9278A114708D3004608D2004908D100C6
:100368004808D000DF01DF0A5308BA005208B90074
:100378005108BC005008BB005530C3004308BD00FD
:1003880059088A156A278A11022B5D08031D6C2AF1
:1003980007305C06031D6C2A5B08031D6C2A5A088B
:1003A800C3004308D900CA01CB01CC01CD014A30B2
:1003B800C3004308A2004C30C4004408A3005908F5
:1003C8008A15A9278A114B08D3004A08D2004D087C
:1003D800D1004C08D0000130C3004308ED00EC0107
:1003E8003230C3004308E80068088A15C6268A1117
:1003F800C3004308E2000130C3004308EA002D307F
:100408005302B430031952020318212A5308570221
:10041800031D102A520856020318142AE901232A38
:1004280057085302031D1A2A560852020318212A94
:100438000130C3004308E900232AED01EA01013035
:10044800C3004308EB008316D40132308312C30083
:100458004308E50065088A15C6268A11C3004308C3
:10046800E1000130C3004308E70008305102FC30C6
:10047800031950020318572A51085502031D462A2A
:100488005008540203184A2AE601592A550851020D
:10049800031D502A540850020318572A0130C3007C
:1004A8004308E600592AEB01E701DF01DF0A530898
:1004B800BA005208B9005108BC005008BB0071309E
:1004C800C3004308BD0059088A156A278A11022B00
:1004D8005C1D8D2A5B08C3004308E80068088A157C
:1004E800C6268A11C3004308E200E9010130C300AF
:1004F8004308EA00ED01EB01DF01DF0AD8015708E4
:10050800BA005608B9005508BC005408BB00E130D1
:10051800B02ADC1CB32A5B08C3004308E80068085B
:100528008A15C6268A11C3004308E2000130C300B9
:100538004308E9000130C3004308EA00ED01EB017C
:10054800DF01DF0AD8015708BA005608B900550874
:10055800BC005408BB00C7308A15F1258A115C1EFF
:10056800D72A5A08C3004308E50065088A15C62635
:100578008A11C3004308E100E6010130C3004308C3
:10058800E700ED01EB01DF01DF0AD8015708BA00E7
:100598005608B9005508BC005408BB00DC308A1561
:1005A800F1258A11022BDC1D022B5A08C3004308CF
:1005B800E50065088A15C6268A11C3004308E100CC
:1005C8000130C3004308E6000130C3004308E700D8
:1005D800ED01EB01DF01DF0AD8015708BA00560820
:1005E800B9005508BC005408BB00E9308A15F1254C
:1005F8008A11022B0130C3004308E007640083120C
:1006080003136008CA3E84008313000303194E28AD
:1006180004306002031CFE2AE001022B831203133C
:100628008C1E8B2B1A08F6007608F5000310861D21
:100638000314031C232B831203138615262B831202
:100648000313861170030319BA2C750A031D2D2B89
:10065800EE0107307302031C592B7308031D722B1C
:10066800750A0319592B722B7508F6007308C33ED7
:1006780084007608831380000130F6007608F307BB
:10068800722B7508F6007308BC3E3C2B7508F60003
:100698007308B53E3C2B7508F6007308AE3E3C2B3C
:1006A8007508F6007308A73E3C2B7408F600F7019E
:1006B8007708003A0319612B722B7608003A031960
:1006C800382B013A0319452B033A03194A2B013AEF
:1006D80003194F2B073A0319542B722B0730730653
:1006E800031D892BF3010130F6007408CA3E84000B
:1006F800760883138000043074020318882B0130B5
:10070800F6007608F407892BF4018C12BA2C0C1C1D
:10071800BA2C83160C14FF3083128F0083308E009E
:100728000F306E0203189D2B0130F6007608EE0795
:10073800A12B73080319A12BF301620864020318A3
:10074800AA2B0130F6007608E4072C2CE4016A0392
:10075800031D282C6908031DCD2B2D305702B330FB
:10076800031956020318E42B0130D6070318D70AD9
:100778000030D70772080319C52B08307202031C12
:10078800CA2B0730F6007608F200E42B0130F2029B
:10079800E42B56085704031DD42B7003031DE42BC8
:1007A8000130D6020030031CD703D702073072028B
:1007B800031CE02BF201E42B0130F6007608F20767
:1007C80057085306031DEA2B56085206031DF12B42
:1007D8006D03031DF12BED01EA017208213E84002F
:1007E8008A1100258A11F60005087606FE39760674
:1007F80085007208193E84008A1100258A11F600C6
:10080800F60CF60C050876067F3976068500720820
:10081800113E84008A1100258A11F600F60EF60DA5
:10082800F60D05087606BF39760685007208093E7A
:1008380084008A1100258A11F600F60D050876064F
:10084800FD39760685002C2C0510851305138510B7
:10085800610863020318352C0130F6007608E307B7
:10086800B92CE3016703031DB52C6608031D582C3A
:1008780008305502FB300319540203186F2C01305D
:10088800D4070318D50A0030D50771080319502C6E
:1008980008307102031C552C0730F6007608F10069
:1008A8006F2C0130F1026F2C54085504031D5F2C86
:1008B8007003031D6F2C0130D4020030031CD503D4
:1008C800D50207307102031C6B2CF1016F2C01302B
:1008D800F6007608F10755085106031D752C5408D3
:1008E8005006031D7C2C6B03031D7C2CEB01E701D8
:1008F8007108213E84008A1100258A11F600F60E3F
:1009080006087606EF39760686007108193E8400D7
:100918008A1100258A11F600F60EF60D06087606ED
:10092800DF39760686007108113E84008A11002599
:100938008A11F600F60EF60DF60D06087606BF3992
:10094800760686007108093E84008A1100258A11FE
:10095800F600F60CF60C060876067F397606860051
:10096800B92C06128612061386130C107B08FF009A
:100978007A088A0079088400780E8300FE0E7E0EBD
:100988000900AC002C08AA0001300310AA0DFF3E94
:10099800031DC92C03102A0DAB002B08AD00323003
:1009A8002C02031808002608AA002A08A3002D080C
:1009B8008A158F258A1183122708AA002A08A300FE
:1009C8002D08013E8A158F258A1183122808AA004E
:1009D8002A08A3002D08023E8A158F258A11831242
:1009E8002908AA002A08A3002D08033E8A158F2586
:0209F8000800F5
:100A000005308A000408840A8207003406340C3456
:100A1000123419341F3425342C3432340034003469
:100A20000034003400340134013401340034003423
:100A30000034013401340134003400340034013412
:100A40000134013400340034003400340134013402
:100A500000340034003400340034013447346F343F
:100A600074346F342034503441344E342034613483
:100A70006E3464342034543449344C345434203487
:100A800048346F346D34653400345734613469341C
:100A9000743469346E346734203466346F3472349D
:100AA000203463346F346D346D3461346E346434A7
:100AB0007334003443344C3445344134523420349C
:100AC0005034523445345334453454342034003493
:100AD000533445345434203442344134553444344E
:100AE00020345234413454344534003447344F3484
:100AF00054344F3420345034523445345334453414
:100B00005434203400345334453454342034503475
:100B100052344534533445345434203400340D3485
:100B20000A3450344C344534413453344534203441
:100B300000340D340A340D340A34533474346134BF
:100B40007234743400340D340A344E344534453430
:100B5000443420340034533454344F34503420342B
:100B60002834003431343134353432343034303494
:100B700000345234453442344F344F34543400340A
:100B8000313439343234303430340034333438345E
:100B900034343034303400345234493447344834F7
:100BA0005434003432343434303430340034393452
:100BB0003634303430340034343438343034303433
:100BC000003444344F3457344E3400344C344534BC
:100BD0004634543400342C342034003455345034EA
:100BE000003429340034B101B201AF01B001AD01CC
:100BF000AE01AB01AC011030A0002730A1002A08E3
:100C0000A3002908A2008A152E278A112108B40002
:100C10002008B3003408A1003308A0001030A2005F
:100C20002730A3008A1560268A112008A90221080E
:100C3000031CAA03AA02E830A0000330A1002A087E
:100C4000A3002908A2008A152E278A112108B200C4
:100C50002008B1003208A1003108A000E830A2004D
:100C60000330A3008A1560268A112008A9022108F2
:100C7000031CAA03AA026430A0000030A1002A08C5
:100C8000A3002908A2008A152E278A112108B00086
:100C90002008AF003008A1002F08A0006430A20097
:100CA0000030A3008A1560268A112008A9022108B5
:100CB000031CAA03AA020A30A0000030A1002A08DF
:100CC000A3002908A2008A152E278A112108AE0048
:100CD0002008AD002E08A1002D08A0000A30A200B7
:100CE0000030A3008A1560268A112008A902210875
:100CF000031CAA03AA022A08AC002908AB00303062
:100D0000B3070318B40A0030B4073030B107031832
:100D1000B20A0030B2073030AF070318B00A003013
:100D2000B0073030AD070318AE0A0030AE073030E0
:100D3000AB070318AC0A0030AC07330834040319BE
:100D4000A52E33088A15FA268A1133083404031DA8
:100D5000AD2E310832040319B12E31088A15FA2656
:100D60008A1133083404031DBD2E31083204031DDB
:100D7000BD2E2F0830040319C12E2F088A15FA261C
:100D80008A1133083404031DD12E31083204031DA7
:100D9000D12E2F083004031DD12E2D082E04031947
:100DA000D52E2D088A15FA268A112B088A15FA26BF
:100DB0000800F001F00A3230A3002308E8000130F7
:100DC000A3002308E9000130A3002308EA00323021
:100DD000A3002308E5000130A3002308E60001304A
:100DE000A3002308E7007030A0001730A1008A1587
:100DF00009268A11E701D401D5016430A000003032
:100E0000A1008A1509268A113230A3002308E500C3
:100E1000E6010130A3002308E700EE30A000023015
:100E2000A1008A1509268A11E701D401D5012230D3
:100E3000A0003D30A1008A1509268A11EA01D601D9
:100E4000D7016430A0000030A1008A1509268A115C
:100E50003230A3002308E800E9010130A300230891
:100E6000EA00F430A0000130A1008A1509268A1199
:100E7000EA01D601D7013230A3002308E800E901D6
:100E80000130A3002308EA003230A3002308E50064
:100E9000E6010130A3002308E700E830A00003309A
:100EA000A1008A1509268A11E701AC30A0000D3097
:100EB000A1008A150926EA01F0010800A601A11F78
:100EC000682FA009A109A00A0319A10AA601A60A70
:100ED000A31F732FA209A309A20A0319A30A0130B1
:100EE000A4002408A606A701A801200821040319CC
:100EF000AA2FA501A50AA11B892F01300310A00D5F
:100F0000A10DFF3E031D7E2F0130A4002408A5077C
:100F10007B2F01300310A70DA80DFF3E031D8A2F64
:100F200021082302031D962F20082202031C9F2F55
:100F30002008A2022108031CA303A30227140130E6
:100F40000310A10CA00CFF3E031DA02F0130A50231
:100F5000031D892F26080319B22FA709A809A70A7C
:100F60000319A80A2808A1002708A00008008A1170
:100F7000FB278A118312A2002208A400D72F831610
:100F800018111930D22F831618153330D22F83162B
:100F900018150C30D22F831618150630D22F831651
:100FA000181501309900F02F83161815C12F240849
:100FB000A200A3012308003A0319DF2FD42F22082F
:100FC000003A0319BF2F013A0319C32F023A03193C
:100FD000C72F073A0319CB2F013A0319CF2FD42F6C
:100FE00018128312981718168316981683128C12EB
:0E0FF00083168C160800FF308A15C3250800F2
:101ADE0064008001840A0406031900340406702D84
:101AEE00A7002708A6002608A300FF308A158F2519
:101AFE0008008312901610169011101590101014E5
:101B0E00FF308F0083308E000C1083160C140800EB
:101B1E00A50025088A15C3258A15831223060319E5
:101B2E0008002308A4002408A00025088A153F26D3
:101B3E000800A300A201231CA82D2008A100210843
:101B4E00A2070310A00D0310A30C2308031DA22D42
:101B5E00220808003608AA003508A9008A11F325C4
:101B6E008A15E6308A1522268A153808AA00370803
:101B7E00A9008A11F32508008312A100C72D831234
:101B8E006400831603139C18C62D83122108831636
:101B9E009B003F308312A000200883169C051C1466
:101BAE001A08080083168E158E180E1CE12D83124E
:101BBE00D801D80A83128501860107309F0083164B
:101BCE0081178115073081048B170B1785010230A1
:101BDE0086000800BD003D088A1522268A15AA3007
:101BEE008A1522268A153A08B6003908B5003C082F
:101BFE00B8003B08B7008A15B1258A15EC308A1556
:101C0E00A22608006400013083120313A0020030E4
:101C1E00031CA103A102200A0319210A03190800BB
:101C2E006400C73083120313A2001D2EA20B1C2EBC
:101C3E00202E00000A2E8312AB00A901AA0129084A
:101C4E002B0784008A1100258A15003A0319080013
:101C5E0029082B0784008A1100258A158A15FA2671
:101C6E008A150130A9070318AA0A0030AA07262EE2
:101C7E00A20083169C18402E8312220883169B0006
:101C8E008312200883169A003F308312A100210888
:101C9E0083169C0503108B1B03148B131C155530D8
:101CAE009D00AA309D009C141C11031C08008B176C
:101CBE000800A401A501201C6A2E2208A4070318FF
:101CCE00A50A2308A50701300310A20DA30DFF3EA0
:101CDE00031D6B2E01300310A10CA00CFF3E031D43
:101CEE00722E20082104031D622E2508A10024084F
:101CFE00A0000800A200A40120080319A02EA30131
:101D0E00A30AA01B912E0310A00D0130A1002108E3
:101D1E00A307882E0310A40D20082202031C9B2E5D
:101D2E002008A20224140310A00C0130A302031DEC
:101D3E00912E24080800AB00A901AA0129082B073F
:101D4E0084008A1100258A15003A0319BE2E29082F
:101D5E002B0784008A1100258A158A15FA268A1502
:101D6E000130A9070318AA0A0030AA07A52E0C30C5
:101D7E008A15FA268A150A308A15FA260800AB004B
:101D8E0033302B02031CCF2E3230A9002908AB00B2
:101D9E0006302B020318D72E0630A9002908AB00F7
:101DAE000230A0000030A1003230A9002B08290219
:101DBE00A200A301031CA3038A115E278A15200823
:101DCE00013EAA002A08AC002C08031DF02EAC011F
:101DDE00AC0A14302C02031CF82E1330A90029086B
:101DEE00AC002C080800A4000030A8000130A700A9
:101DFE00FF30A600FF30A500202F0130A0000030DC
:101E0E00A1000030A2000030A3002008A502210886
:101E1E00031C210F132F142FA6022208031C220FBE
:101E2E00192F1A2FA7022308031C230F1F2F202F51
:101E3E00A802831698182A2F83122808270426042E
:101E4E002504031D042F8312240899000800A601FF
:101E5E00A701200821040319652FA501A50AA11BBE
:101E6E00442F01300310A00DA10DFF3E031D392F8D
:101E7E000130A4002408A507362F01300310A60D4B
:101E8E00A70DFF3E031D452F21082302031D512FD1
:101E9E0020082202031C5A2F2008A2022108031C2C
:101EAE00A303A302261401300310A10CA00CFF3EC5
:101EBE00031D5B2F0130A502031D442F2708A1002F
:101ECE002608A0000800C1000A30BE003E08A0008F
:101EDE0041088A1581268A15BF003F08C200F630D8
:101EEE00BE003E08A00042088A15A0258A154107AB
:101EFE00BF003F08C0003030BE003E08C207303081
:101F0E00BE003E08C0073D088A1522268A154208E3
:101F1E008A15FA268A1540088A15FA268A15AA30D5
:101F2E008A1522268A153A08B6003908B5003C08EB
:101F3E00B8003B08B7008A15B1258A15EC308A1512
:101F4E00A2260800A6002608A40001300310A40D46
:101F5E00FF3E031DAD2F0310240DA5002508A7007D
:101F6E00323026020318080027088A15C3258A1561
:101F7E008312A400A5012208840024088313800084
:101F8E00840A250880002708013E8A15C3258A1574
:101F9E008312A400A5012408A500A4012208840030
:101FAE00240883138004840A250880042708023E2F
:101FBE008A15C3258A158312A400A501230884005F
:101FCE00240883138000840A250880002708033E16
:101FDE008A15C3258312A400A5012408A500A40117
:101FEE0023088400240883138004840A25088004AF
:021FFE000800D9
:02400E00543F1D
:00000001FF
