:040000008A11112828
:10000800FE00030E83120313A1000408A2000A08CD
:10001800A3007F08A4008A11552B8A111328FD011B
:100028008313453084005F308A155D258A11A0301E
:100038008400DE308A155D2583018A1123288A15FC
:100048009C258A118A1565278A118A1565258A11C2
:10005800F4308312A5000130A6008A15CB258A1139
:10006800B530AE008830AF008A15B0268A113A3014
:10007800AE008830AF008A15B0268A113230A5004C
:100088000030A6008A15CB258A118A1125278A11E6
:100098005330AE008830302B5108CA3E84008001AE
:1000A8008316EE0183125108031D5E2883166E081D
:1000B800C33E7C285103031D652883166E08BC3E89
:1000C8007C2802305106031D6D2883166E08B53E44
:1000D8007C2803305106031D752883166E08AE3E32
:1000E8007C2804305106031D872883166E08A73E16
:1000F800840000088312C30083166E08A03E8400A3
:100108008312430880000130C30043088316EE07BA
:1001180007306E02031C5628200A031D342BDE010B
:10012800ED01ED0A6D08A03E840000088312C300AB
:1001380043088316DE0701308312C3004308831681
:10014800ED0706306D02031C962826085E06031D7F
:10015800342B21088312C30043088316D4002208D5
:100168008312C3004308D000831623088312C300F8
:100178004308CF00831624088312C3004308CE0027
:10018800831625088312C3004308CD00831626086A
:100198008312C30043088316D300D5015403031DFB
:1001A800342BF03083125006031DEC2883304F06A1
:1001B800031DEC284E08031DEC284D03031DEC28F5
:1001C8008330AE008830AF008A15B0268A11EB283C
:1001D8005008031D3D2967304F06031D3D294E0871
:1001E800031D3D2983165103031D382983124D0829
:1001F8008A11F3278A119A308312AE008830AF0033
:100208008A15B0268A114D08031D0E29EE30AE005E
:10021800883030294D03031D1529FC30AE00883085
:10022800302903304D06031D1D29D630AE00883015
:10023800302904304D06031D2529DE30AE008830F4
:10024800302905304D06031D2D29CD30AE008830EC
:100258003029F530AE008830AF008A15B0268A11F3
:100268006A30AE008830302B7C308312AE00883084
:10027800302B5008031D54294F08031D54294E08DC
:10028800031D54294D08031D5429D901D50183168E
:10029800D501D50A8312DB010A30AE0089301E2B46
:1002A8005008031DAF2903304F06031DAF294E0820
:1002B800031DAF294D08C3004308CC004A08AE000F
:1002C8004908AD004808B0004708AF004C088A1537
:1002D80023278A118316D501D50A0A308312C30051
:1002E8004308A5004C088A1505268A11C40044084D
:1002F8008316E200F6308312C3004308A500831674
:1003080062088A1574258A114C07C40044088316AC
:10031800DF0030308312C30043088316E207303011
:100328008312C30043088316DF07C1308312AE006F
:100338008830AF008A15B0268A11831662088A159C
:100348007B268A1183165F088A157B268A11073057
:10035800AE0089301E2B5008031D222A05304F0697
:10036800031D222A4E08031D222A4D08C3004308F4
:10037800CC00FF30AD00FF30AE00FF30AF00FF30E3
:10038800B0004C088A1523278A118316E501E60177
:10039800E701E801E5308312C3004308A700E7300E
:1003A800C4004408A8004C088A15A9278A11831696
:1003B80066088312C600831665088312C500831673
:1003C8006808D0006708CF00D501D50A0A30831223
:1003D800C3004308A5004C088A1505268A11C400E5
:1003E80044088316E300F6308312C3004308A500CF
:1003F800831663088A1574258A114C07C4004408BB
:100408008316E00030308312C30043088316E307E5
:1004180030308312C30043088316E0078C30831200
:10042800AE008830AF008A15B0268A11831663089B
:100438008A157B268A1183166008962A5008031DA0
:10044800AC2A07304F06031DAC2A4E08031DAC2A00
:100458004D08C3004308CC008316E901EA01EB010B
:10046800EC01E9308312C3004308A700EB30C40055
:100478004408A8004C088A15A9278A1183166A0817
:100488008312C600831669088312C50083166C0898
:10049800D0006B08CF0001308312C3004308DB0093
:1004A8003230C3004308D7003230C3004308D400B9
:1004B8008316D501D50A0A308312C3004308A50064
:1004C8004C088A1505268A11C40044088316E400DE
:1004D800F6308312C3004308A500831664088A1502
:1004E80074258A114C07C40044088316E100303093
:1004F8008312C30043088316E40730308312C30015
:1005080043088316E107A8308312AE008830AF0095
:100518008A15B0268A11831664088A157B268A11E3
:10052800831661088A157B268A110730AE00893048
:10053800AF008A15B0268A114608B6004508B500EE
:10054800831650088312B80083164F088312292B8C
:100558004F1DC12A4E08C3004308D700D8010130F7
:10056800C3004308D900DB018316D501D50AD101A0
:1005780011308312AE008930D82ACF1CEE2A4E08DB
:10058800C3004308D7000130C3004308D800013036
:10059800C3004308D900DB018316D501D50AD10170
:1005A800E6308312AE008830AF008A15B0268A1173
:1005B8004A08B6004908B5004808B8004708B70017
:1005C8008A115A258A111D30AE008930AF008A156C
:1005D800B0268A114F1E052B4D08C3004308D400CE
:1005E8008316DC0101308312C3004308D500DB0108
:1005F8008316D501D50AD10103308312AE008930A4
:100608001E2BCF1D342B4D08C3004308D4000130E6
:10061800C30043088316DC0001308312C30043087B
:10062800D500DB018316D501D50AD1011830831214
:10063800AE008930AF008A15B0268A114A08B60084
:100648004908B5004808B8004708B7008A115A2574
:100658008A111D30AE008930AF008A15B0268A1184
:100668006400831203135108CA3E840083130003F5
:1006780003195028043051020318472B0130C300D6
:100688004308D107482BD1010310861D0314031C0E
:10069800512B831203138615342B831203138611EF
:1006A800342B8C1EB72B1A08A0002008DE004B0341
:1006B80003194F2D5E0A031D622BDC0107307D02F2
:1006C800031C6C2B7D08031D9E2B5E0A031D9E2BAD
:1006D8005D08031D742B5E08A0007D08C33E962BA1
:1006E8005D03031D7C2B5E08A0007D08BC3E962B95
:1006F80002305D06031D852B5E08A0007D08B53E0F
:10070800962B03305D06031D8E2B5E08A0007D0826
:10071800AE3E962B04305D06031D9E2B5E08A0009E
:100728007D08A73E84002008831380000130A000C4
:100738002008FD0707307D06031DB52BFD0101309C
:10074800A0005D08CA3E840020088313800004309E
:100758005D020318B42B0130A0002008DD07B52B7B
:10076800DD018C124F2D0C1C4F2D83160C14FF30FD
:1007780083128F0083308E000F305C020318C92B60
:100788000130A0002008DC07CD2B7D080319CD2BF4
:10079800FD01831658085A020318D92B0130831219
:1007A800A00020088316DA07A22CDA018312590365
:1007B800031D5B03031D9E2C560857060319F02BD7
:1007C8005708A0002008D60057088A1547268A111E
:1007D800A00020088316D80083125B03031D122C87
:1007E8005A08031D122C0130A0002008DA00460820
:1007F8004A02031D012C450849020318052CD8019B
:10080800192C4A084602031D0B2C490845020318F7
:10081800192C0130A0002008D800192C5B08031DF2
:10082800192C5A03031D192CDA015808031D382CFA
:100838002E304A02E0300319490203184F2C0130C8
:10084800C9070318CA0A0030CA0753080319302C0D
:1008580008305302031C352C0730A0002008D300B1
:100868004F2C0130D3024F2C49084A04031D3F2C5A
:100878004B03031D4F2C0130C9020030031CCA036F
:10088800CA0207305302031C4B2CD3014F2C0130F2
:10089800A0002008D3074A084606031D552C49081E
:1008A80045060319DB015308323E840088300318DB
:1008B800013EFF008A1500208A11A00005082006C5
:1008C800FE392006850053082A3E84008830031824
:1008D800013EFF008A1500208A11A000A00CA00C80
:1008E800050820067F39200685005308223E84002B
:1008F80088300318013EFF008A1500208A11A000E5
:10090800A00EA00DA00D05082006BF392006850001
:1009180053081A3E840088300318013EFF008A15E8
:1009280000208A11A000A00D05082006FD39200628
:100938008500A22C0510851305138510831657080A
:1009480059020318AE2C01308312A0002008831628
:10095800D9074D2DD90183125503031D492D83163F
:100968005B08831254060319C72C5408A0002008FA
:100978008316DB00831254088A1547268A11A000C3
:1009880020088316D70083165C08031DE82C0A305C
:1009980083124802F030031947020318002D013072
:1009A800C7070318C80A0030C80752080319E02C03
:1009B80008305202031CE52C0730A0002008D200A2
:1009C800002D0130D202002D831247084804031D70
:1009D800F02C4B03031D002D0130C7020030031C0F
:1009E800C803C80207305202031CFC2CD201002D98
:1009F8000130A0002008D2075208323E8400883017
:100A08000318013EFF008A1500208A11A000A00EDD
:100A180006082006EF392006860052082A3E840080
:100A280088300318013EFF008A1500208A11A000B3
:100A3800A00EA00D06082006DF3920068600520801
:100A4800223E840088300318013EFF008A150020EA
:100A58008A11A000A00EA00DA00D06082006BF391F
:100A68002006860052081A3E840088300318013E8A
:100A7800FF008A1500208A11A000A00CA00C06080F
:100A880020067F39200686004D2D06128612061391
:100A9800861383120C102408FF0023088A002208FA
:100AA8008400210E8300FE0E7E0E0900BF01C001E6
:100AB800BD01BE01BB01BC01B901BA011030A500DE
:100AC8002730A6003608A8003508A7008A15E726AB
:100AD8008A112608C2002508C1004208A60041085C
:100AE800A5001030A7002730A8008A1526268A11ED
:100AF8002508B5022608031CB603B602E830A5008F
:100B08000330A6003608A8003508A7008A15E7268E
:100B18008A112608C0002508BF004008A6003F0823
:100B2800A500E830A7000330A8008A1526268A11F8
:100B38002508B5022608031CB603B6026430A500D2
:100B48000030A6003608A8003508A7008A15E72651
:100B58008A112608BE002508BD003E08A6003D08EB
:100B6800A5006430A7000030A8008A1526268A113F
:100B78002508B5022608031CB603B6020A30A500EC
:100B88000030A6003608A8003508A7008A15E72611
:100B98008A112608BC002508BB003C08A6003B08B3
:100BA800A5000A30A7000030A8008A1526268A1159
:100BB8002508B5022608031CB603B6023608BA0093
:100BC8003508B9003030C1070318C20A0030C2071F
:100BD8003030BF070318C00A0030C0073030BD07E7
:100BE8000318BE0A0030BE073030BB070318BC0A22
:100BF8000030BC073030B9070318BA0A0030BA070A
:100C08004108420403190C2E41088A157B268A11D3
:100C180041084204031D142E3F0840040319182EEE
:100C28003F088A157B268A1141084204031D242E99
:100C38003F084004031D242E3D083E040319282EB6
:100C48003D088A157B268A1141084204031D382E67
:100C58003F084004031D382E3D083E04031D382E6E
:100C68003B083C0403193C2E3B088A157B268A1155
:100C780039088A157B268A112130AE008930AF00E9
:100C88008A15B0268A111030A5002730A60038082A
:100C9800A8003708A7008A15E7268A112608C20087
:100CA8002508C1004208A6004108A5001030A70089
:100CB8002730A8008A1526268A112508B702260893
:100CC800031CB803B802E830A5000330A6003808B2
:100CD800A8003708A7008A15E7268A112608C00049
:100CE8002508BF004008A6003F08A500E830A70077
:100CF8000330A8008A1526268A112508B702260877
:100D0800031CB803B8026430A5000030A6003808F8
:100D1800A8003708A7008A15E7268A112608BE000A
:100D28002508BD003E08A6003D08A5006430A700C0
:100D38000030A8008A1526268A112508B702260839
:100D4800031CB803B8020A30A5000030A600380812
:100D5800A8003708A7008A15E7268A112608BC00CC
:100D68002508BB003C08A6003B08A5000A30A700E0
:100D78000030A8008A1526268A112508B7022608F9
:100D8800031CB803B8023808BA003708B900303075
:100D9800C1070318C20A0030C2073030BF07031862
:100DA800C00A0030C0073030BD070318BE0A003043
:100DB800BE073030BB070318BC0A0030BC07303010
:100DC800B9070318BA0A0030BA07410842040319E0
:100DD800F12E41088A157B268A1141084204031D19
:100DE800F92E3F0840040319FD2E3F088A157B267B
:100DF8008A1141084204031D092F3F084004031DBE
:100E0800092F3D083E0403190D2F3D088A157B263E
:100E18008A1141084204031D1D2F3F084004031D89
:100E28001D2F3D083E04031D1D2F3B083C040319DC
:100E3800212F3B088A157B268A1139088A157B26BB
:100E48000800CB01CB0A3230A5000030A6008A1575
:100E5800CB258A113230A8002808D7000130A80015
:100E68002808D8000130A8002808D900E430A500D7
:100E78005730A6008A15CB258A11D901C901CA01A4
:100E88006430A5000030A6008A15CB258A113230BF
:100E9800A8002808D700D8010130A8002808D900E0
:100EA800F430A5000130A6008A15CB258A11D90196
:100EB800C901CA013230A5000030A6008A15CB2529
:100EC8008A113230A8002808D4000130A800280868
:100ED8008316DC0001308312A8002808D500703082
:100EE800A5001730A6008A15CB258A11D501C701A0
:100EF800C8016430A5000030A6008A15CB258A11E8
:100F08003230A8002808D4008316DC01013083128F
:100F1800A8002808D500EE30A5000230A6008A15E2
:100F2800CB25D501C701C801CB010800F601F11F87
:100F3800A42FF009F109F00A0319F10AF601F60ADB
:100F4800F31FAF2FF209F309F20A0319F30A01306C
:100F5800F4007408F606F701F80170087104031923
:100F6800E62FF501F50AF11BC52F01300310F00D2E
:100F7800F10DFF3E031DBA2F0130F4007408F50788
:100F8800B72F01300310F70DF80DFF3E031DC62FD4
:100F980071087302031DD22F70087202031CDB2F25
:100FA8007008F2027108031CF303F302771401308E
:100FB8000310F10CF00CFF3E031DDC2F0130F5028D
:100FC800031DC52F76080319EE2FF709F809F70A4C
:100FD8000319F80A7808F1007708F0000800AF0054
:100FE8002F08AD00AE012D08A8002E08A900FF307B
:060FF8008A15B325080074
:10100000FF1B0A2883137F1883170008840A03191B
:10101000FF0A08007F087F398A000408840A031940
:10102000FF0A820006340C34123419341F3425347C
:101030002C343234003400340034003400340134B1
:1010400001340134003400340034013401340134FB
:1010500000340034003401340134013400340034ED
:1010600000340034013401340034003400340034DE
:101070000034013447346F3474346F3420345034C6
:1010800041344E34203461346E346434203454346A
:1010900049344C345434203448346F346D3465341E
:1010A0000D340A340034573461346934743469348B
:1010B0006E346734203466346F34723420346334D1
:1010C0006F346D346D3461346E34643473340D3484
:1010D0000A3400340D340A3450344C34453441342D
:1010E0005334453420345234453442344F344F3431
:1010F00054340D340A3400340D340A344E3445343B
:101100004534443420345234453442344F344F341F
:1011100054340D340A34003443344C3445344134AF
:1011200052342034503452344534533445345434DA
:101130002034003453344534543420344234413460
:10114000553444342034523441345434453400341A
:1011500047344F3454344F342034503452344534AF
:10116000533445345434203400340D340A340D34AF
:101170000A34533474346134723474340D340A34A0
:1011800000345334453454342034503452344534CC
:10119000533445345434203400343134313435340C
:1011A0003234303430340D340A340034313439348C
:1011B0003234303430340D340A340034333438347B
:1011C0003434303430340D340A3400345234493439
:1011D00047344834543420342834003432343434DE
:1011E000303430340D340A34003439343634303449
:1011F00030340D340A34003434343834303430343C
:101200000D340A34003444344F3457344E342034CF
:1012100028340034533454344F3450342034283478
:1012200000344C34453446345434203428340034AB
:101230005534503420342834003429340D340A34E1
:0812400000342C34203400348A
:101AB200FF308A158625080064008001840A040626
:101AC2000319003404065E2D83129016101690112D
:101AD200101590101014FF308F0083308E000C1000
:101AE20083160C1408008312A800A701281C7D2D60
:101AF2002508A6002608A7070310A50D0310A80CA9
:101B02002808031D772D270808008312A6008A2DB6
:101B120083126400831603139C18892D83122608EE
:101B220083169B003F308312A500250883169C056F
:101B32001C141A08080083168E158E180E1CA32D6D
:101B4200D101D10A83128501860107309F008316D5
:101B520081178115073081048B170B17850102301D
:101B620086000800AC002C088A1586258A15831287
:101B7200AA00AB0129082B06031DC12D28082A063D
:101B8200031908002808AA002A08A5002C088A15AB
:101B9200E42508006400013083120313A50200301B
:101BA200031CA603A602250A0319260A0319080024
:101BB2006400C73083120313A700DF2DA70BDE2DAD
:101BC200E22D0000CC2DA70083169C18E52D831270
:101BD200270883169B008312250883169A003F303C
:101BE2008312A600260883169C0503108B1B031480
:101BF2008B131C1555309D00AA309D009C141C119E
:101C0200031C08008B170800A700A9012508031967
:101C1200242EA801A80AA51B152E0310A50D01301C
:101C2200A6002608A8070C2E0310A90D25082702D6
:101C3200031C1F2E2508A70229140310A50C01302E
:101C4200A802031D152E29080800A901AA01251CB6
:101C5200302E2708A9070318AA0A2808AA07013064
:101C62000310A70DA80DFF3E031D312E01300310F6
:101C7200A60CA50CFF3E031D382E25082604031DC5
:101C8200282E2A08A6002908A5000800FB003330E8
:101C92007B02031C502E3230F9007908FB0006301B
:101CA2007B020318582E0630F9007908FB00023037
:101CB200F0000030F1003230F9007B087902F200C6
:101CC200F301031CF3038A119A278A157008013E57
:101CD200FA007A08FC007C08031D712EFC01FC0A44
:101CE20014307C02031C792E1330F9007908FC00B1
:101CF2007C0808008312A9000030AD000130AC005E
:101D0200FF30AB00FF30AA00A22E0130A500003048
:101D1200A6000030A7000030A8002508AA02260865
:101D2200031C260F952E962EAB022708031C270FA5
:101D32009B2E9C2EAC022808031C280FA12EA22E3B
:101D4200AD0283169818AC2E83122D082C042B0496
:101D52002A04031D862E8312290899000800B30164
:101D6200B40133082E07B1002F08B0000318B00ADF
:101D7200B31BB003831203133008B2003208FF0012
:101D8200310884008A1500208A15003A03190800D8
:101D920033082E07B1002F08B0000318B00AB31B96
:101DA200B003831203133008B2003208FF00310877
:101DB20084008A1500208A158A157B268A1501302F
:101DC200B3070318B40A0030B407B22EAB01AC015A
:101DD2002508260403191E2FAA01AA0AA61BFD2EF6
:101DE20001300310A50DA60DFF3E031DF22E01309A
:101DF200A9002908AA07EF2E01300310AB0DAC0D84
:101E0200FF3E031DFE2E26082802031D0A2F250869
:101E12002702031C132F2508A7022608031CA80368
:101E2200A8022B1401300310A60CA50CFF3E031DC3
:101E3200142F0130AA02031DFD2E2C08A6002B0828
:101E4200A5000800B3003308B10001300310B10D42
:101E5200FF3E031D272F0310310DB2003208B400DC
:101E62003230330203180800FF302D05A80000307D
:101E72002E05A90034088A15B3258A1583122E0867
:101E8200B100B2013108A8003208A9003408013EAD
:101E92008A15B3258A15FF3083122F05A80000305A
:101EA2003005A9003408023E8A15B3258A1583122B
:101EB2003008B100B2013108A8003208A900340884
:101EC200033E8A15B32508008A1559258A158312FF
:101ED200A7002708A900852F831618111930802F13
:101EE200831618153330802F831618150C30802F67
:101EF200831618150630802F8316181501309900A5
:101F02009E2F831618156F2F2908A700A8012808ED
:101F1200003A03198D2F822F2708003A03196D2FDB
:101F2200013A0319712F023A0319752F073A03195F
:101F3200792F013A03197D2F822F181283129817D5
:101F420018168316981683128C1283168C160800A4
:101F5200AB002B08A90001300310A90DFF3E031DA1
:101F6200AD2F0310290DAA002A08AC0032302B0233
:101F7200031808002C088A1586258A158312A900E1
:101F8200AA0127088400290883138000840A2A08EA
:101F920080002C08013E8A1586258A158312A90025
:101FA200AA012908AA00A901270884002908831385
:101FB2008004840A2A0880042C08023E8A15862599
:101FC2008A158312A900AA0128088400290883130C
:101FD2008000840A2A0880002C08033E8A15862580
:101FE2008312A900AA012908AA00A90128088400CD
:0E1FF200290883138004840A2A08800408004A
:02400E00543F1D
:00000001FF
