:040000000200963232
:03000B0002059A51
:0100130032BA
:01001B0032B2
:03002300020217BF
:200028000000E2FBEAF2802C0000E0FBEAF08024E6B50202EBF62200E2B50202EBF22200BE
:20004800E0B50202EBF02230F6E0A88220F5D3EAC6F582228B822230F6E6A88220F5D980CE
:01006800CFC8
:2000EF00752200752300752400752500752C00753300753A00754100754800754D00754E9F
:20010F0000754F00755000755100755200755300E4F554F555F556F557F558F559F55AF505
:20012F005BF55CF55DF55EF55FF560F561F562F563F564F565F56CF56DF56EF56FF570F51A
:07014F0071F572F573F57400
:03019200020069FF
:030069000201B6DB
:2001950022C2959000FA12042BD2959000FA12042BC2959000FA12042BD2959000FA0204BB
:1201B5002B9001F412042B12044F12047E12019680FB2A
:20069200534554204241554420524154452000323430300D0A00343830300D0A0031393258
:2006B20030300D0A0033383430300D0A003131353230300D0A00393630300D0A0053544F7F
:2006D200500D0A00534554205052455345540D0A00434C454152205052455345540D0A003A
:2006F200474F544F205052455345540D0A004C4546540D0A0052494748540D0A00444F57E4
:090712004E0D0A0055500D0A00BD
:06015600750800750901A7
:2001C700AF82C2998F99750800E50860FC22AD82AE83AFF07B007C00EB2DF8EC3EF98F02C2
:2001E700888289838AF0120676FA60208A82C007C006C005C004C0031201C7D003D004D02A
:2002070005D006D0070BBB00CF0C80CC22D29922C0E0C007C006C000C0D075D000AF98740C
:20022700025FFEBE0205750801C299530701BF010280030202DFC2988599227401B50A0366
:200247000202DF74FFB52203754E00E52424F9500CE52460030202C074FFB5225CE52370D4
:200267000EE524FF04F524EF2425F8A622804A7401B5230EE524FF04F524EF242CF8A62203
:2002870080377402B5230EE524FF04F524EF2433F8A62280247403B5230EE524FF04F524F3
:2002A700EF243AF8A62280117404B5230CE524FF04F524EF2441F8A6227407B5241A7524FD
:2002C70000E5232448F8760174FC25234007E52304F5238003752300D0D0D000D006D007D9
:1002E700D0E0328509822275820122900000222205
:20015C00750A00750B00750C00750D00750E00750F007510007511007512007513007514D7
:10017C00007515C87516C8E4F517F518F519F51AB4
:2002F700750A0175823212035812034075820112039090072B75F0801201D590138812040F
:200317002BE4F517F51875823212036275820112039490074A75F0801201D590138812046E
:200337002BE4F519F51AF50A22750D01D29522750D00C29522750E01D28422750E00C2848D
:200357002285821112036C8582152285821212036C85821622E582FF24CD50027F32BF0695
:200377000050027F067432C39F75F00284FF0FEF24EC50027F138F822285820F2285821029
:2003970022C3E51794FFE51894FF50180517E4B51702051874FD250B4004050B8003750BF7
:2003B700000203DA22E51745186017151774FFB517021518E50B6004150B8003750B03023F
:2003D70003DA22E50B9007239324FF9296E50B9007279324FF92972274FD250C4004050CD9
:2003F7008003750C0002040DE50C6004150C8003750C0002040DE50B9007239324FF9285CB
:0B041700E50B9007279324FF9287223B
:20071B00060C12191F252C3201000001010100004D6F746F7220313A20676F20746F2068BE
:20073B006F6D652C20776169742E2E2E0D0A004D6F746F7220323A20676F20746F20686F2E
:0E075B006D652C20776169742E2E2E0D0A001C
:20042200AF828F061FEE70FA22AE82AF837C007D00C3EC9EED9F50147A957B051ABAFF0160
:0D0442001BEA4B70F70CBC00E80D80E522B2
:20044F00538E8F2275F75575F7AA75F75A75B6282275F75575F7AA75F75A53B6DF2275B716
:20046F00552275F75575F7AA75F75A75E7FF2253D5FE43D40153D5DF43D42053D5BF43D462
:20048F004053D57F43D48053D3DF43D22053D37F43D28053D5FE43D40122439180D29E43F4
:2004AF00878043D91075BA0375AA982285C982228582C922438902224389202275C1607502
:2004CF00C8812253C8FC43C8012253C8FC22AFC37E00ACC27D00EC4206ED42078E828F83BD
:1104EF002253C9FD22E583C313C58213C582F5832226
:06018C00751B00751C004C
:2005000053C9F02253C8FC75CD0075CC0043C80122AF828F8C8F8A22AF828F8D8F8B225382
:20052000D9FC43D902758258120511D28C22AE82AF8353D9F343D90475825FC007C006123B
:200540000518D006D007900003EEF0EFA3F0D28E22AE82AF8353D9F343D908758258C007A1
:20056000C006120518D006D007900003EEF0EFA3F0D28E22208CFD22208EFD22C28CC28D2F
:2005800022C28EC28F22A28CB39200E433F58222A28EB39201E433F58222C021C0E0C0F0FC
:2005A000C082C083C007C006C005C004C003C002C001C000C0D075D00074F6254E4004059F
:2005C0004E8007E5246003752400C3E51B95155004051B8019751B00E50F700A7401B50D92
:2005E0000D12039880087401B50D031203BCC3E51C95165004051C8019751C00E510700A31
:200600007401B50E0D1203EF80087401B50E031203FFD0D0D000D001D002D003D004D0052B
:20062000D006D007D083D082D0F0D0E0D02102006C32C021C0E0C0F0C082C083C007C00624
:20064000C005C004C003C002C001C000C0D075D0001204DD1204F0D0D0D000D001D002D05A
:1606600003D004D005D006D007D083D082D0F0D0E0D02102006CB7
:0600C500E478FFF6D8FD0F
:2000A3007900E94400601B7A00900769780575A000E493F2A308B8000205A0D9F4DAF2758F
:0200C300A0FF9C
:20006C00C000A88118C0D0B6001B18B628004015B64F005010C0E0E65407B406005004E68D
:0A008C0054F8F6D0E0D0D0D00032D6
:2000CB007800E84400600A790175A000E4F309D8FC7804E84400600C7901900001E4F0A32E
:0400EB00D8FCD9FA6A
:0D009600758174120195E582600302006916
:1C06760020F71430F6148883A88220F507E6A88375830022E280F7E49322E02293
:00000001FF
